:100000000C94B1000C94D9000C94D9000C94D90034
:100010000C94D9000C94D9000C94D9000C9437019D
:100020000C94D9000C94D9000C94D9000C94D900EC
:100030000C94D9000C9475010C94D9000C94D9003F
:100040000C94D9000C94D9000C94D9000C94DB00CA
:100050000C94D9000C94D9000C94D9006E616E00F8
:10006000696E660000407A10F35A00A0724E1809BB
:100070000010A5D4E80000E87648170000E40B540F
:10008000020000CA9A3B000000E1F50500008096DE
:100090009800000040420F000000A0860100000010
:1000A000102700000000E8030000000064000000CA
:1000B00000000A00000000000100000000002C7693
:1000C000D888DC674F0823DFC1DFAE59E1B1B796AE
:1000D000E5E3E453C63AE651997696E8E6C284260B
:1000E000EB898C9B62ED407C6FFCEFBC9C9F40F2E7
:1000F000BAA56FA5F490055A2AF75C936B6CF96763
:100100006DC11BFCE0E40D47FEF520E6B500D0ED27
:10011000902E0300943577050080841E080000208F
:100120004E0A000000C80C333333330F986E12832D
:100130001141EF8D2114893BE65516CFFEE6DB1801
:10014000D1844B381BF77C1D901DA4BBE4242032C6
:1001500084725E228100C9F124ECA1E53D27B0063E
:10016000C80611241FBECFEFD4E0DEBFCDBF11E023
:10017000A0E0B1E0E6E8FBE102C005900D92A63DEB
:10018000B107D9F722E0A6EDB1E001C01D92A13080
:10019000B207E1F710E0C0EBD0E004C02197FE0108
:1001A0000E94B10BCF3AD107C9F70E94A3050C9466
:1001B000B60D0C9400001F920F920FB60F921124EF
:1001C0002F933F934F935F936F937F938F939F935F
:1001D000AF93BF93EF93FF93609178008091790084
:1001E00090E0982F8827680F792F711D90E080E0AC
:1001F0000E94D60A9B01AC0160E879E986ED97E49C
:100200000E94350A0E94A70A6A3421E0720781051C
:100210009105A0F087E00E948103FF91EF91BF91CB
:10022000AF919F918F917F916F915F914F913F918E
:100230002F910F900FBE0F901F901895603421E002
:1002400072078105910510F086E0E5CF663321E065
:1002500072078105910510F085E0DDCF6C327140A9
:100260008105910510F081E0D6CF80E0D4CF1F92B8
:100270000F920FB60F9211242F933F934F935F93DA
:100280006F937F938F939F93AF93BF93EF93FF935E
:100290008091000190910101A0910201B0910301B0
:1002A0000196A11DB11D8093000190930101A093BF
:1002B0000201B09303018AED91E00E948D058091C7
:1002C000D90181608093D901FF91EF91BF91AF91E6
:1002D0009F918F917F916F915F914F913F912F915E
:1002E0000F900FBE0F901F9018951F920F920FB690
:1002F0000F9211242F933F934F935F936F937F93AC
:100300008F939F93AF93BF93EF93FF938BEE91E007
:100310000E94A802FF91EF91BF91AF919F918F91A1
:100320007F916F915F914F913F912F910F900FBEF1
:100330000F901F9018950F931F93CF93DF936091A9
:10034000000170910101809102019091030128E563
:1003500032E040E050E00E94700BC22F609100013B
:100360007091010180910201909103012AE030E037
:1003700040E050E00E94700BCA01B9012CE330E06C
:1003800040E050E00E94700BD62F062FCA3030F1AB
:100390008C2F6AE00E94640B682F80E00E940A03A1
:1003A0001AE08C2F612F0E94640B692F81E00E945C
:1003B0000A03802F612F0E94640BC92F682F82E0EF
:1003C0000E940A036C2F83E00E940A038D2F817024
:1003D000DF91CF911F910F910C94EE0360E080E0CC
:1003E0000E944803DDCFDC011092C50083E38093B7
:1003F000C400E1ECF0E090819861908386E0809306
:10040000C20054961C92549755961C928081806825
:100410008083089508958091C00085FFFCCF60938C
:10042000C60008950F931F93CF93DF938C01EB01C8
:100430006991662321F0C8010E940B02F9CFDF9178
:10044000CF911F910F910895FF920F931F93CF9318
:10045000DF938C01F42EEB016991662321F0C80132
:100460000E940B02F9CFFF2069F06DE0C8010E94E5
:100470000B026AE0C801DF91CF911F910F91FF90AD
:100480000C940B02DF91CF911F910F91FF90089573
:10049000EF92FF920F93CF93DF93CDB7DEB7A39781
:1004A0000FB6F894DEBF0FBECDBF7C01CB01BA0101
:1004B00030E0AE014F5F5F4F0E94DC0C402FBE0169
:1004C0006F5F7F4FC7010E942402A3960FB6F89476
:1004D000DEBF0FBECDBFDF91CF910F91FF90EF90A8
:1004E00008950F931F93CF93DF93CDB7DEB72C976B
:1004F0000FB6F894DEBF0FBECDBF8C01CB01BA01A1
:100500002AE0AE014F5F5F4F0E94E70CBE016F5FB4
:100510007F4FC8010E9412026DE0C8010E940B02C9
:100520006AE0C8010E940B022C960FB6F894DEBF59
:100530000FBECDBFDF91CF911F910F910895CF9343
:10054000C091C6006C2F0E940B028C2FCF91089592
:10055000CF93DF93EC010E949F028D3029F481E05C
:100560008C8BDF91CF9108959D89FE01E90FF11DDC
:1005700080839F5F9D8BF5CFDC015596EC9155975D
:10058000E80FF92FF11D108254961C92549755963E
:100590001C920895FC0191E08589811101C090E0D1
:1005A000848989230895209A289A8091E5008063A0
:1005B0008093E5008091E600662371F08767809361
:1005C000E6008091E70080628093E7008091E4007C
:1005D000806C8093E400089585678093E6008091A5
:1005E000E70086648093E7008091E4008068F1CFA3
:1005F000E4EEF0E08081816080832FEF84E39CE073
:10060000215080409040E1F700C0000080818F774A
:10061000808308951F93CF93DF93E62FF0E0ED578B
:10062000FE4F608170E015E1819FC00111248B5F56
:100630009E4F30E020E0A1E0B0E0F901EE0FFF1F97
:10064000E80FF91F0780F085E02DEC01C20FD31FE2
:100650004881ED0102C0CC0FDD1F4A95E2F7AE01E3
:10066000EB01022E02C0D595C7950A94E2F750819E
:10067000C0FF0BC0452B40832F5F3F4F2830310513
:10068000E1F6DF91CF911F91089540954523F3CF77
:100690001F93CF93DF9315E1819FC00111248B5FDE
:1006A0009E4F30E020E0A1E0B0E070E0F901EE0FF5
:1006B000FF1FE80FF91F0780F085E02DEC01C20F46
:1006C000D31F4881ED0102C0CC0FDD1F4A95E2F730
:1006D000AE01EB01022E02C0D595C7950A94E2F750
:1006E0005081C0FF0BC0452B40832F5F3F4F283008
:1006F0003105E1F6DF91CF911F9108954095452393
:10070000F3CF883008F041C0E82FF0E0E457FC4F09
:100710008091ED000C94B10B9403A003A203B303EA
:10072000C603CD03CF03DB038F7E8093ED00809162
:10073000F2008F7E8093F2008091F7008F7E1EC0C2
:100740008061F3CF8F7E8093ED008091F2008F7EE9
:100750008093F2008091F7008F7E8093F700809164
:10076000FC00806110C08F7E8093ED008091F200CC
:100770008F7E8093F2008091F70080618093F70074
:100780008091FC008F7E8093FC0008958F7E809383
:10079000ED008091F2008061CDCF8061D4CF806187
:1007A0008093ED008091F2008F7E8093F200809123
:1007B000F7008061D2CF80618093ED008091F200DC
:1007C0008061F3CF882331F08091FB0080618093BA
:1007D000FB0008958091FB008F7EF9CF882331F0D4
:1007E0008091FC0081608093FC0008958091FC0062
:1007F0008E7FF9CF8091FB00829581700895809162
:10080000FC00817008954F925F926F927F928F9259
:100810009F92AF92BF92CF92DF92EF92FF920F938F
:100820001F93CF93DF936B017C01C42FDC01CB01BD
:1008300081569947AE4FBF4F8F3D984CA041B105AF
:1008400008F052C086E0841BF7FE0DC060E40E94F1
:10085000480387E08C1BF094E094D094C094C11CB2
:10086000D11CE11CF11C15E0C82FD0E08AE0482E15
:10087000512C612C712C812F012E000C990B8C179F
:100880009D0794F480E0DF91CF911F910F91FF902D
:10089000EF90DF90CF90BF90AF909F908F907F9020
:1008A0006F905F904F900895C701B601A301920128
:1008B0000E94920B49015A01812F11500E940A0394
:1008C00064017501C114D104E104F104A1F6812F82
:1008D000012E000C990B8C179D07A4F260E0812F6C
:1008E0000E9448031150F3CF81E0CDCF46E00C9435
:1008F0000304CF93882319F080E00E94810380E0F5
:100900000E94EE0380E00E94E203C5E060E08C2FCD
:100910000E944803C150D0F7CF91089581E00C9414
:1009200079040895CF93DF93EC012A81222349F0C3
:100930006F8570E090E080E042E0DF91CF910C9411
:100940000304E981F0E0E754FE4F608184E00E94F7
:100950004803E981F0E0EC54FE4F608185E0DF91CF
:10096000CF910C940A03249A2C9883EC87BD0895A8
:100970000F931F93CF93DF93EC018B010E94B3047D
:100980001C830B8319821A825E985F98DF91CF9146
:100990001F910F910895089584B58A6184BD0895CB
:1009A00023E0FC0120830C94CC0425E0FC0120838F
:1009B0000C94CC0427E0FC0120830C94CC04CF924F
:1009C000DF92EF92FF92CF93DF93EC016A017B01FC
:1009D0000E94DA0481E08A83CF82D886E986FA868B
:1009E0005F9A5E988981823031F158F48823B9F09A
:1009F0008130E1F0DF91CF91FF90EF90DF90CF90C9
:100A000008958330D1F08430A9F71F868AE590E0FD
:100A10009E838D83CB86DC86ED86FE86EBCF84E1DC
:100A20008F878CE291E09E838D83E4CF84E18F8772
:100A300082EC91E0F8CF8EE1F3CF8EE1F8CFCF9347
:100A4000DF93EC010E94DA045E9A5F981A82DF91CC
:100A5000CF910895CF92DF92EF92FF92FC01258112
:100A60003681C780D084E184F284C20ED31EE11C9B
:100A7000F11CC416D506E606F70608F049C027851E
:100A800031813430A9F5C782D086E186F286C384ED
:100A9000D484E584F6844C195D096E097F09E22F40
:100AA000F0E0EE0FFF1FE357FE4FC080D180F12C26
:100AB000E12CC416D506E606F70620F52F5FFC01EB
:100AC00027872D3030F0FF90EF90DF90CF900C947F
:100AD0001F05E22FF0E0E955FE4F208130E0FC01D8
:100AE00036832583FF90EF90DF90CF900C94D50450
:100AF00021502787C782D086E186F286222319F308
:100B000020FFF0CFFF90EF90DF90CF900C94D004B7
:100B1000FF90EF90DF90CF900895FC019081992392
:100B200079F091509083973058F4963011F481E029
:100B30008083808180FF03C0CF010C94CC0414BC5F
:100B4000089514BC089580EC8AB980E38BB983E6DC
:100B50008DB980EA8EB980917C008E6580937C008F
:100B600080917A008A6880937A0080916400866020
:100B700080936400809181008C608093810084E088
:100B80009DE0909389008093880080916F0082603F
:100B900080936F0081E00E94E20381E00E94EE03F7
:100BA00087E00E9481038091000190910101A09152
:100BB0000201B09103010197A109B10980930001DD
:100BC00090930101A0930201B0930301892B8A2B1A
:100BD0008B2B49F789B180718093D80189B18072DC
:100BE0008093D701769A7894C1E0D9E089B1909149
:100BF000D80180718917B1F089B180718093D801D3
:100C00008091D801882371F08091DC01811108C0A6
:100C10008091DB018F5F853008F08FC08093DB010E
:100C2000C093040189B19091D70180728917B1F006
:100C300089B180728093D7018091D701882371F0A8
:100C40008BB180588BB98091DC01882309F478C07E
:100C50008AED91E00E941F05C09304018091D901A3
:100C600080FF38C08091D9018E7F8093D901809117
:100C7000DC01882361F040910001509101016091F5
:100C80000201709103018AED91E00E942A05809192
:100C90000401815080930401811110C0D09304019C
:100CA0005F9A80917A00806480937A000E949B0111
:100CB0008AED91E00E9492045E985F984C994DC035
:100CC0008091D6018F5F8093D6018091D6018531C6
:100CD00008F075988BEE91E00E94CA02882359F0C3
:100CE0008BEE91E00E94BC0241E06EEB71E08BEE76
:100CF00091E00E94240280917A008F7780937A009D
:100D00008091640087608093640083B7817F83BF94
:100D1000F89483B7816083BF7894889583B78E7F7A
:100D200083BF809164008E7F8093640080917A00FD
:100D3000806880937A00789459CF1092DB0170CF4D
:100D400040910001509101016091020170910301F5
:100D50008AED91E00E94DF047FCF1092D601BACFD6
:100D60008BEE91E00E94F30160E08AEE91E00E9438
:100D7000D3026AEE71E08AED91E00E94B80489B175
:100D800080718093D80189B180728093D7010895D2
:100D90008AED91E00E9491048AEE91E00E94F802AF
:100DA0008BEE91E00C940A02AFE0B0E0EAEDF6E0E1
:100DB0000C94B70B6C011B015A01FC0117821682BF
:100DC000838181FF48C39E012F5F3F4F4901F60198
:100DD0009381F10193FD859193FF81911F018823F8
:100DE00009F4E7C2853239F493FD859193FF81912F
:100DF0001F01853239F4B60190E00E94180D3501CB
:100E00005301E5CFF12C512C00E0003238F48B3245
:100E100009F190F48032F9F0833209F107FD34C012
:100E200020ED280F2A3020F506FF1BC0FAE0FF9EB8
:100E3000200D1124F22E05C08D3279F0803371F728
:100E40000160F10193FD859193FF81911F01811153
:100E5000DCCF1AC002600460F4CF0860F2CF0061FA
:100E6000F0CF3AE0539E200D1124522E0062E9CFBC
:100E70008E3221F406FD9DC20064E3CF8C3611F45E
:100E80000068DFCF8836E9F29BEB980F933008F0CB
:100E90005FC00061805E06FD02C046E0F42E102FA8
:100EA0001F73853609F05BC0106417FF61C08F2D7A
:100EB0009BE39F1508F48BE344244394480E27E0FA
:100EC0003501F4E06F0E711CF50160817181828142
:100ED0009381042DA4010E94EE0B5C01F981FC8733
:100EE000F0FF03C00DE2F3FF07C00BE211FD04C0E9
:100EF000012F047012FD00E22C852C70E22E09F403
:100F000057C00111ABC2F3E0E12CF515A0F483E06A
:100F1000E52CE81A13FD08C0B60180E290E00E94BB
:100F2000180DEA94E110F8CF002329F0B601802FC4
:100F300090E00E94180D3C852CE5A22E20E0B22EF8
:100F400033FD04C090E6A92E90E0B92E107122C0A6
:100F50009BE9980F933008F033C10F7E9CCF863603
:100F600011F41068A2CFFF2009F49FCFFA949DCF0F
:100F7000E7E02F2DEF1518F427E037E0F32E412C92
:100F80009FCF11118052B60190E00E94180D8FEF93
:100F9000A81AB80AF50184918111F3CFEE2009F463
:100FA0002FCFB60180E290E00E94180DEA94F6CFB0
:100FB00017FF6FC04A0CFC85F4FF04C08A8181339F
:100FC00009F44A9414140CF086C028E0241510F497
:100FD00088E0482E85E090E017FF06C0C501B7FE07
:100FE00002C090E080E0019601110196FF2031F0EF
:100FF0002F2D30E02F5F3F4F820F931F5816190699
:1010000019F014F0E52CE81A812F897011F4E11021
:1010100067C0002329F0B601802F90E00E94180DD0
:1010200013FD02C0E11063C017FF7CC08501B7FE4D
:1010300002C010E000E0C501841991092C016F2D58
:1010400070E0EE27FF27E61BF70BFF87EE870F3FC9
:10105000100729F4B6018EE290E00E94180DA01648
:10106000B1060CF44BC0401651060CF047C0F50118
:10107000E01BF10BE80DF91D8181015011092E854E
:101080003F8502171307E4F1B60190E00E94180DA6
:10109000DECF16FD9FCFEF2DF0E0EA15FB0534F013
:1010A0003CEFA3163FEFB3060CF010683296E80D44
:1010B000F91D01C0FA94FF2019F082918033D1F319
:1010C00017FF88CF442443944F0CFA141B0431F0CB
:1010D0002CF0FA187FCF442443947CCFF12C7ACFA4
:1010E000B60180E290E00E94180DEA9490CFB6011C
:1010F00080E390E00E94180DEA9494CF80E3BDCF86
:10110000A016B10641F49A81963350F4953319F440
:101110003C8534FF05C0B60190E00E94180D3ECF1B
:1011200081E3F9CF8A81813319F09C859F7E9C876A
:10113000B60190E00E94180DFF20A9F0B6018EE2E2
:1011400090E00E94180DF394F394E2E001E00E0F9A
:10115000E80DF92DF11D8081B60190E00E94180D77
:10116000E02F0F11F3CF85E690E014FF02C085E475
:1011700090E0B6010E94180DB7FC06C0A114B1049E
:10118000C1F4EC85E4FF15C0B194A194B1088DE2DF
:10119000B60190E00E94180D80E32AE0A216B10487
:1011A00054F4B60190E00E94180DB601C501C09636
:1011B000B4CF8BE2EDCF8F5FFAE0AF1AB108EDCF7D
:1011C0008336C9F0833771F1833509F05BC035018F
:1011D000F2E06F0E711CF501A080B1806F2D70E000
:1011E00006FD02C06FEF7FEFC5010E94C60C9D8710
:1011F0008C8700680DC0350132E0630E711CF5016B
:101200008081898321E030E03D872C8754010F776E
:1012100003FD06C02C853D855216130609F0A8F47F
:10122000E52C2BC0350132E0630E711CF501A08066
:10123000B1806F2D70E006FD02C06FEF7FEFC5013A
:101240000E94D10C9D878C87E2CFB60180E290E0AE
:101250000E94180D5A94DECFF50107FD859107FF16
:1012600081915F01B60190E00E94180DE110EA94AF
:101270008C859D8501979D878C87EC85FD85EF2B5F
:1012800059F78CCE843619F0893609F074C03501CF
:1012900007FF66C0F4E06F0E711CF501608171817B
:1012A00082819381102F1F7697FF08C090958095BB
:1012B000709561957F4F8F4F9F4F10682AE030E007
:1012C000A4010E94480DA82EA818BA2C012F16FFC1
:1012D0000AC00E7FAF1438F414FF04C012FD02C020
:1012E000012F0E7EBF2C04FF8EC0FE01EA0DF11D02
:1012F0008081803309F080C0097EF02FF870EF2ED6
:1013000003FD90C000FF8AC0FA2CB51410F4F50C50
:10131000FB1804FF8DC0B60180E390E00E94180D19
:1013200002FF09C088E790E001FF02C088E590E075
:10133000B6010E94180DAF1408F486C0AA940A2DB5
:1013400010E00F5F1F4F080D191DF80182918F01EA
:10135000B60190E00E94180D80169106B1F71ECEDE
:10136000F2E06F0E711CF50160817181072E000C97
:10137000880B990B97CF102F8537A9F41F7E2AE091
:1013800030E0350117FF2FC0F4E06F0E711CF5013E
:101390006081718182819381A4010E94480DA82EF1
:1013A000A8181F7792CF197F8F36D1F048F488356F
:1013B00091F0F601868197812F96E2E10C94D30B90
:1013C000803739F08837A9F714FD146020E130E048
:1013D000D8CF1061F9CF04FD166020E132E0D1CF03
:1013E00028E030E0CECFF2E06F0E711CF501608195
:1013F000718190E080E0D0CF02FD02C0B3947DCF38
:10140000B394B3947ACF802F867809F476CFF6CF51
:10141000B60180E290E00E94180DB394B514C0F3B9
:10142000E12C77CFE52CEB18B51408F472CFF8CF88
:10143000802F867809F47FCF8BE201FF80E207FDE1
:101440008DE2B60190E075CFB60180E390E00E9496
:10145000180DFA9470CF8FEF9FEFAECF24E0E12C00
:10146000251508F063CD84E053CD0E94490A0C9401
:101470002A0B0E94230B58F00E941C0B40F029F409
:101480005F3F29F00C94130B51110C945E0B0C94DC
:10149000190B0E943B0B68F39923B1F3552391F389
:1014A000951B550BBB27AA2762177307840738F0D3
:1014B0009F5F5F4F220F331F441FAA1FA9F335D030
:1014C0000E2E3AF0E0E832D091505040E695001CE4
:1014D000CAF72BD0FE2F29D0660F771F881FBB1F9E
:1014E000261737074807AB07B0E809F0BB0B802D7C
:1014F000BF01FF2793585F4F3AF09E3F510578F0A8
:101500000C94130B0C945E0B5F3FE4F3983ED4F302
:10151000869577956795B795F7959F5FC9F7880F7B
:10152000911D9695879597F90895E1E0660F771FCD
:10153000881FBB1F621773078407BA0720F0621B5E
:10154000730B840BBA0BEE1F88F7E09508950E9489
:10155000430B88F09F5798F0B92F9927B751B0F0F7
:10156000E1F0660F771F881F991F1AF0BA95C9F727
:1015700014C0B13091F00E945D0BB1E008950C945D
:101580005D0B672F782F8827B85F39F0B93FCCF310
:10159000869577956795B395D9F73EF490958095A4
:1015A000709561957F4F8F4F9F4F0895E89409C0C4
:1015B00097FB3EF490958095709561957F4F8F4F86
:1015C0009F4F9923A9F0F92F96E9BB279395F6959C
:1015D000879577956795B795F111F8CFFAF4BB0F1A
:1015E00011F460FF1BC06F5F7F4F8F4F9F4F16C07E
:1015F000882311F096E911C0772321F09EE8872F08
:10160000762F05C0662371F096E8862F70E060E0C3
:101610002AF09A95660F771F881FDAF7880F96953C
:10162000879597F9089597F99F6780E870E060E0E3
:1016300008959FEF80EC089500240A94161617066B
:1016400018060906089500240A94121613061406B3
:1016500005060895092E0394000C11F4882352F016
:10166000BB0F40F4BF2B11F460FF04C06F5F7F4FCE
:101670008F4F9F4F089557FD9058440F551F59F0B5
:101680005F3F71F04795880F97FB991F61F09F3F6F
:1016900079F087950895121613061406551FF2CF98
:1016A0004695F1DF08C0161617061806991FF1CFE8
:1016B00086957105610508940895E894BB2766270F
:1016C0007727CB0197F90895991B79E004C0991FFA
:1016D000961708F0961B881F7A95C9F7809508958C
:1016E000A1E21A2EAA1BBB1BFD010DC0AA1FBB1F26
:1016F000EE1FFF1FA217B307E407F50720F0A21B98
:10170000B30BE40BF50B661F771F881F991F1A9404
:1017100069F760957095809590959B01AC01BD012E
:10172000CF010895052E97FB1EF400940E94A90B8B
:1017300057FD07D00E94700B07FC03D04EF40C94A9
:10174000A90B50954095309521953F4F4F4F5F4FD6
:10175000089590958095709561957F4F8F4F9F4F1D
:101760000895EE0FFF1F0590F491E02D09942F923C
:101770003F924F925F926F927F928F929F92AF9221
:10178000BF92CF92DF92EF92FF920F931F93CF936E
:10179000DF93CDB7DEB7CA1BDB0B0FB6F894DEBF05
:1017A0000FBECDBF09942A88398848885F846E842B
:1017B0007D848C849B84AA84B984C884DF80EE8075
:1017C000FD800C811B81AA81B981CE0FD11D0FB67E
:1017D000F894DEBF0FBECDBFED010895283008F0AC
:1017E00027E03327DA01990F311D87FD91600096BC
:1017F0006105710539F432602E5F3D9330E32A951F
:10180000E1F708959F3F30F080387105610509F0D8
:101810003C5F3C5F3D93913008F08068911DDF9301
:10182000CF931F930F93FF92EF92192F987F969566
:10183000E92F96959695E90FFF27E254FF4F9927D8
:101840003327EE24FF24A701E701059008940794AD
:1018500028F4360FE71EF81E491F511D660F771F2B
:10186000881F991F0694A1F70590079428F4E70EA6
:10187000F81E491F561FC11D770F881F991F661F2D
:101880000694A1F70590079428F4F80E491F561FF7
:10189000C71FD11D880F991F661F771F0694A1F7D8
:1018A0000590079420F4490F561FC71FD81F990FA2
:1018B000661F771F881F0694A9F7849110951770EB
:1018C00041F0D695C79557954795F794E7941A95A3
:1018D000C1F7E4E6F0E068941590159135916591B3
:1018E000959105907FE27395E118F10A430B560B31
:1018F000C90BD009C0F7E10CF11E431F561FC91FC9
:10190000D01D7EF4703311F48A95E6CFE89401502F
:1019100030F0080F0AF40027021708F4202F23954F
:10192000022F7A3328F079E37D932A95E9F710C0E6
:101930007D932A9589F6069497956795379517951F
:101940001794E118F10A430B560BC90BD00998F014
:1019500023957E9173957A3308F070E37C9320137E
:10196000B8F77E9170617D9330F0839571E37D933C
:1019700070E32A95E1F71124EF90FF900F911F91EA
:10198000CF91DF91992787FD90950895FC010590EF
:10199000615070400110D8F7809590958E0F9F1F71
:1019A0000895FC016150704001900110D8F78095B6
:1019B00090958E0F9F1F08952532310520F4223017
:1019C00010F00C94E70CFA011082CA010895BB27AD
:1019D0002A3051F4992342F4BDE290958095709598
:1019E00061957F4F8F4F9F4F0C94F70CBB27FA01E7
:1019F000A62F6217710581059105330B30FB66F048
:101A0000AA27660F771F881F991FAA1FA21710F019
:101A1000A21B63953850A9F7A05DAA3308F0A95D11
:101A2000A19336F7B111B1931082CA010C94A60D9F
:101A30000F931F93CF93DF93182F092FEB018B8107
:101A400081FD09C01FEF0FEF812F902FDF91CF9104
:101A50001F910F91089582FF14C02E813F818C81C8
:101A60009D81281739073CF4E881F981CF0101965F
:101A70009983888310838E819F8101969F838E83B3
:101A8000E3CFE885F985812F0995892BA1F3DACF7A
:101A9000FA01AA27283051F1203181F1E8946F939F
:101AA0006E7F6E5F7F4F8F4F9F4FAF4FB1E03ED045
:101AB000B4E03CD0670F781F891F9A1FA11D680FE3
:101AC000791F8A1F911DA11D6A0F711D811D911D16
:101AD000A11D20D009F468943F912AE0269F11248B
:101AE0003019305D3193DEF6CF010895462F4770EF
:101AF000405D4193B3E00FD0C9F7F6CF462F4F704A
:101B0000405D4A3318F0495D31FD4052419302D0A7
:101B1000A9F7EACFB4E0A69597958795779567954D
:101B2000BA95C9F700976105710508959B01AC014D
:101B30000A2E06945795479537952795BA95C9F774
:101B4000620F731F841F951FA01D0895DC01FC0107
:101B5000672F71917723E1F7329704C07C916D93E1
:101B600070836291AE17BF07C8F3089510E0C0EB11
:101B7000D0E004C0FE010E94B10B2196C13BD10709
:061B8000C9F7F894FFCF45
:101B8600FFFF00000102020203030303ED00F2005F
:101B9600F700FC00F700ED00F20000000001010173
:101BA60001ED00F200F700FC00F700ED00F2000680
:101BB600060607070707EC00F100F600FB00F60033
:101BC600EC00F10004040405050505EC00F100F63F
:101BD60000FB00F600EC00F100020202030303031F
:101BE600EC00F100F600FB00F600EC00F10000004E
:101BF6000001010101EC00F100F600FB00F600EC2B
:101C060000F1003F065B4F666D7D077F6F9204E330
:101C1600061309710BF90D1E106C12AC140D175733
:101C260019C01B141E84205A55504C4845413A375A
:101C36003533323003040304005050717138537445
:101C460061727420766572626F7365207374726553
:061C5600616D696E67007C
:00000001FF
