:100000000C94B9000C94E1000C94E1000C94E30012
:100010000C94E1000C94E1000C94E1000C94E100DC
:100020000C94E1000C94E1000C94E1000C94E100CC
:100030000C94E1000C94E1000C94E1000C94E100BC
:100040000C94E1000C94E1000C94E1000C94FD0090
:100050000C94E1000C94E1000C94E10026022802CB
:100060002F0231023D024E025A0261026E616E00A1
:10007000696E660000407A10F35A00A0724E1809AB
:100080000010A5D4E80000E87648170000E40B54FF
:10009000020000CA9A3B000000E1F50500008096CE
:1000A0009800000040420F000000A0860100000000
:1000B000102700000000E8030000000064000000BA
:1000C00000000A00000000000100000000002C7683
:1000D000D888DC674F0823DFC1DFAE59E1B1B7969E
:1000E000E5E3E453C63AE651997696E8E6C28426FB
:1000F000EB898C9B62ED407C6FFCEFBC9C9F40F2D7
:10010000BAA56FA5F490055A2AF75C936B6CF96752
:100110006DC11BFCE0E40D47FEF520E6B500D0ED17
:10012000902E0300943577050080841E080000207F
:100130004E0A000000C80C333333330F986E12831D
:100140001141EF8D2114893BE65516CFFEE6DB18F1
:10015000D1844B381BF77C1D901DA4BBE4242032B6
:1001600084725E228100C9F124ECA1E53D27F003F1
:10017000F50311241FBECFEFD4E0DEBFCDBF11E0E9
:10018000A0E0B1E0E0E7F5E102C005900D92AE38E5
:10019000B107D9F721E0AEE8B1E001C01D92AF3858
:1001A000B207E1F710E0C8EBD0E004C02197FE01F0
:1001B0000E94C408C73BD107C9F70E9430030C94C2
:1001C000AB0A0C9400001F920F920FB60F921124ED
:1001D0008F931E9B0CC080910101833021F45E98A7
:1001E0001092010104C05E9A81E0809301018F9119
:1001F0000F900FBE0F901F9018951F920F920FB681
:100200000F9211242F933F934F935F936F937F939C
:100210008F939F93AF93BF93EF93FF938091780059
:100220006091790070E0762F6627680F711D80E07D
:1002300090E00E9417089B01AC0160E070E889E83B
:1002400099E40E9476070E94E80760930201709388
:100250000301809304019093050160910201709164
:10026000030180910401909105010E94AC02FF916D
:10027000EF91BF91AF919F918F917F916F915F911E
:100280004F913F912F910F900FBE0F901F90189597
:10029000209A289A8091E50080638093E500809100
:1002A000E600662361F087678093E6008091E700AF
:1002B00080628093E7008091E400806C0BC08567CA
:1002C0008093E6008091E70086648093E700809148
:1002D000E40080688093E4000895E4EEF0E080811B
:1002E000816080832FEF84E39CE021508040904028
:1002F000E1F700C0000080818F7780830895CF925E
:10030000DF92EF92FF920F931F93CF93DF93E62F2D
:10031000F0E0EC57FE4F408150E025E1829FC001A4
:1003200011248A5F9E4FFC0120E030E0C1E0D0E064
:100330006C01C20ED31EBA01022E02C075956795DC
:100340000A94E2F707811085D80160FF0BC0FC908A
:10035000BE01D6010C9002C0660F771F0A94E2F727
:100360006F290CC07C917E01D6010C9002C0EE0C6E
:10037000FF1C0A94E2F76E2D60956723D8016C93F9
:100380002F5F3F4F32962830310591F6DF91CF91A4
:100390001F910F91FF90EF90DF90CF900895CF9233
:1003A000DF92EF92FF920F931F93CF93DF9325E19C
:1003B000829FC00111248A5F9E4FFC0120E030E043
:1003C00070E0C1E0D0E06C01C20ED31EAB01022E82
:1003D00002C0559547950A94E2F707811085D80128
:1003E00040FF0BC0FC90AE01D6010C9002C0440F40
:1003F000551F0A94E2F74F290CC05C917E01D6018B
:100400000C9002C0EE0CFF1C0A94E2F74E2D4095B2
:100410004523D8014C932F5F3F4F3296283031054A
:1004200091F6DF91CF911F910F91FF90EF90DF90A8
:10043000CF90089590E08830910508F054C0FC01F9
:10044000E25DFF4F8091ED000C94C4088F7E01C0E7
:1004500080618093ED008091F2008F7E14C08F7ECA
:100460001EC08F7E8093ED008091F2008F7E80937E
:10047000F2008091F70080610BC08F7E8093ED00C9
:100480008091F20080618093F2008091F7008F7E6E
:100490008093F7008091FC008F7E23C08061809361
:1004A000ED008091F2008F7E8093F2008091F70042
:1004B0008F7E12C080618093ED008091F2008F7E6C
:1004C00006C080618093ED008091F200806180938E
:1004D000F2008091F70080618093F7008091FC002A
:1004E00080618093FC000895882321F08091FB00B7
:1004F000806103C08091FB008F7E8093FB00089594
:10050000882321F08091FC00816003C08091FC0071
:100510008E7F8093FC0008958091FB00829581700E
:1005200008958091FC008170089520E030E0281744
:10053000390789F0289AEFE2F5E73197F1F700C023
:1005400000002898EFE2F5E73197F1F700C00000CE
:100550002F5F3F4FECCF08954F925F926F927F9243
:100560008F929F92AF92BF92CF92DF92EF92FF92C3
:100570000F931F93CF93DF936B017C01DC01CB01C1
:1005800081569947AE4FBF4F8F3D984CA041B10562
:1005900008F041C0F7FE0EC060E480E00E94CF0189
:1005A000F094E094D094C094C11CD11CE11CF11CC7
:1005B00001E001C000E0C5E010E08AE0482E512CC7
:1005C000612C712C8C2F0C2E000C990B801791072D
:1005D00014F480E021C0C701B601A30192010E947A
:1005E000A50849015A018C2FC1500E947F01640166
:1005F0007501C114D104E104F10421F78C2F0C2EF4
:10060000000C990B8017910724F38C2F60E0C150E8
:100610000E94CF01F3CF81E0DF91CF911F910F9125
:10062000FF90EF90DF90CF90BF90AF909F908F9012
:100630007F906F905F904F900895CF9380E00E94DD
:100640001A0280E00E94800280E00E947402C5E0ED
:1006500060E08C2F0E94CF01C150D0F7CF91089558
:1006600080EC8AB91BB814B885B91DB88FEF8EB964
:1006700014B885B95E9A809164008E60809364009E
:1006800080917C008E6580937C0080917A008A68DE
:1006900080937A0080E28DBB80E480936C00789434
:1006A000D3E0CFEF11E00AE080E4F82E2FEF80E7EF
:1006B00092E0215080409040E1F700C0000080911E
:1006C000000181508093000180910001811148C098
:1006D00080910101813059F118F0833099F140C0C7
:1006E00080917A008F7780937A00809164008F6088
:1006F0008093640083B7817F866083BFF89483B75B
:10070000816083BF7894889583B78E7F83BF809103
:1007100064008E7F8093640080917A00806880936B
:100720007A007894109301010093000119C068E3E6
:1007300070E98DE090E00E94AC02D0930101C0937B
:1007400000010EC080910001811105C0C09300011D
:100750008BB18F258BB980917A00806480937A0069
:100760008091020190910301A0910401B0910501D3
:100770008C339F40A105B10510F087E02EC0809119
:10078000020190910301A0910401B0910501863A04
:100790009E40A105B10510F086E01FC080910201C6
:1007A00090910301A0910401B091050180319E4018
:1007B000A105B10510F085E010C080910201909173
:1007C0000301A0910401B09105018C3A9D40A1055F
:1007D000B10510F081E001C080E00E941A0266CFEE
:1007E00060E08EE891E00C9448018EE891E00C9472
:1007F0006D01A0E1B0E0EFEFF3E00C94CA087C01DA
:100800001B016A01FC0117821682838181FF44C3A8
:100810009E012F5F3F4F3901F7019381F10193FD55
:10082000859193FF81911F01882309F431C385329B
:1008300039F493FD859193FF81911F01853239F43D
:10084000B70190E00E94110A56016501E5CF10E062
:10085000512C912CFFE1F915D8F08B3279F038F456
:10086000803279F08332A1F4F92DF0612EC08D32FF
:1008700061F0803369F4292D21602DC0392D32605B
:10088000932E892D8460982E2AC0E92DE86015C02A
:1008900097FC2DC020ED280F2A3088F496FE06C064
:1008A0003AE0139F200D1124122F19C08AE0589EA0
:1008B000200D1124522EE92DE0629E2E10C08E32A2
:1008C00031F496FCE5C2F92DF0649F2E08C08C36F9
:1008D00021F4292D2068922E02C0883641F4F101BE
:1008E00093FD859193FF81911F018111B3CF9BEB04
:1008F000980F933020F4992D9061805E07C09BE99A
:10090000980F933008F066C1992D9F7E96FF16E0F0
:100910009F73992E853619F49064992E08C08636F7
:1009200021F4392F3068932E02C01111115097FE17
:1009300007C01C3350F444244394410E27E00BC0FD
:10094000183038F027E017E005C027E09CE3492E77
:1009500002C0212F412C560184E0A80EB11CF601E3
:100960006081718182819381042DA3010E942309FA
:100970006C01F981FC87F0FF02C0F3FF06C091FC17
:1009800006C092FE06C000E205C00DE203C00BE205
:1009900001C000E08C858C7019F001115AC29BC215
:1009A00097FE10C04C0CFC85F4FF04C08A81813393
:1009B00009F44A94141474F528E0241578F588E0B5
:1009C000482E2CC096FC2AC0812F90E08C159D05E6
:1009D0009CF03CEFC3163FEFD30674F0892D80687E
:1009E000982E0AC0E2E0F0E0EC0FFD1FE10FF11DD0
:1009F0008081803319F411501111F4CF97FE0EC08D
:100A000044244394410E812F90E0C816D9062CF45B
:100A10001C1904C04424439401C010E097FE06C092
:100A20001C141D0434F4C601019605C085E090E055
:100A300002C081E090E001110196112331F0212FD5
:100A400030E02F5F3F4F820F931F252D30E082173C
:100A5000930714F4581A01C0512C892D897049F458
:100A6000552039F0B70180E290E00E94110A5A94B3
:100A7000F7CF002329F0B701802F90E00E94110AE0
:100A800093FC09C0552039F0B70180E390E00E9443
:100A9000110A5A94F7CF97FE4CC04601D7FE02C008
:100AA000812C912CC60188199909F301E80FF91FCF
:100AB000FE87ED87960124193109388B2F87012F86
:100AC00010E01195019511093FEF8316930629F463
:100AD000B7018EE290E00E94110AC814D9044CF0CC
:100AE0008F8598898815990524F4ED85FE85818187
:100AF00001C080E3F1E08F1A91082D853E852F5FBC
:100B00003F4F3E872D87801691062CF0B70190E06D
:100B10000E94110AD9CFC814D90441F49A8196339E
:100B200020F4953319F43C8534FF81E3B70190E05C
:100B30004EC08A81813319F09C859F7E9C87B701C6
:100B400090E00E94110A111105C094FC18C085E6BE
:100B500090E017C0B7018EE290E00E94110A1E5F7C
:100B600082E001E0080FF301E80FF11D8081B70179
:100B700090E00E94110A802F0113F3CFE6CF85E4A5
:100B800090E0B7010E94110AD7FC06C0C114D1043D
:100B900041F4EC85E4FF05C0D194C194D1088DE205
:100BA00001C08BE2B70190E00E94110A80E32AE0C5
:100BB000C216D1042CF08F5FFAE0CF1AD108F7CF1C
:100BC000B70190E00E94110AB701C601C0960E94C9
:100BD000110A54C1833631F0833779F0833509F037
:100BE00056C020C0560132E0A30EB11CF601808130
:100BF000898301E010E0630112C05601F2E0AF0EFC
:100C0000B11CF601C080D18096FE03C0612F70E058
:100C100002C06FEF7FEFC6010E94060A8C01F92D1A
:100C2000FF7714C0560122E0A20EB11CF601C0806D
:100C3000D18096FE03C0612F70E002C06FEF7FEF9E
:100C4000C6010E94FB098C01F92DF0689F2EF3FD6F
:100C50001AC0852D90E008171907A8F4B70180E2A3
:100C600090E00E94110A5A94F4CFF60197FC859106
:100C700097FE81916F01B70190E00E94110A511017
:100C80005A94015011090115110579F7F7C08436FE
:100C900011F0893661F5560197FE09C024E0A20ED5
:100CA000B11CF60160817181828193810AC0F2E0FA
:100CB000AF0EB11CF60160817181072E000C880B0C
:100CC000990BF92DFF769F2E97FF09C0909580957F
:100CD000709561957F4F8F4F9F4FF0689F2E2AE050
:100CE00030E0A3010E944D0AC82EC6183FC0092D4E
:100CF000853721F40F7E2AE030E01DC0097F8F3652
:100D000091F018F4883559F0C3C0803719F088374E
:100D100011F0BEC0006104FF09C0046007C094FE6A
:100D200008C0066006C028E030E005C020E130E0E1
:100D300002C020E132E0560107FF09C084E0A80E9E
:100D4000B11CF601608171818281938108C0F2E05B
:100D5000AF0EB11CF6016081718180E090E0A301CB
:100D60000E944D0AC82EC6180F77902E96FE0BC013
:100D7000092D0E7FC11650F494FE0AC092FC08C0E3
:100D8000092D0E7E05C0DC2C092D03C0DC2C01C012
:100D9000D12E04FF0DC0FE01EC0DF11D80818033CA
:100DA00011F4097E09C002FF06C0D394D39404C095
:100DB000802F867809F0D39403FD11C000FF06C090
:100DC0001C2DD51480F4150D1D190DC0D51458F423
:100DD000B70180E290E00E94110AD394F7CFD514B6
:100DE00010F45D1801C0512C04FF10C0B70180E35E
:100DF00090E00E94110A02FF17C001FD03C088E7BE
:100E000090E002C088E590E0B7010CC0802F8678A2
:100E100059F001FF02C08BE201C080E207FD8DE2C4
:100E2000B70190E00E94110AC11638F4B70180E3BF
:100E300090E00E94110A1150F7CFCA94F301EC0D13
:100E4000F11D8081B70190E00E94110AC110F5CF19
:100E500015C0F4E0F51560F584E0581A93FE1FC044
:100E6000011127C02C8523FF2AC00CE610E0392D84
:100E70003071932EF8018491811124C0552009F41A
:100E8000E4CCB70180E290E00E94110A5A94F6CFB8
:100E9000F7018681978126C08FEF9FEF23C0B701AE
:100EA00080E290E00E94110A5A945110F8CFD8CFF6
:100EB000512CB701802F90E00E94110AD3CF00E798
:100EC00010E0D5CF91108052B70190E00E94110A36
:100ED0000F5F1F4FCFCF23E0251510F483E0BDCF68
:100EE000512CC0CF6096E2E10C94E6080E948A077C
:100EF0000C946B080E94640858F00E945D0840F052
:100F000029F45F3F29F00C94540851110C949F0868
:100F10000C945A080E947C0868F39923B1F3552376
:100F200091F3951B550BBB27AA27621773078407FC
:100F300038F09F5F5F4F220F331F441FAA1FA9F392
:100F400035D00E2E3AF0E0E832D091505040E69580
:100F5000001CCAF72BD0FE2F29D0660F771F881FE1
:100F6000BB1F261737074807AB07B0E809F0BB0BD4
:100F7000802DBF01FF2793585F4F3AF09E3F5105E8
:100F800078F00C9454080C949F085F3FE4F3983E6B
:100F9000D4F3869577956795B795F7959F5FC9F7D1
:100FA000880F911D9695879597F90895E1E0660F52
:100FB000771F881FBB1F621773078407BA0720F0CB
:100FC000621B730B840BBA0BEE1F88F7E095089534
:100FD0000E94840888F09F5798F0B92F9927B7513D
:100FE000B0F0E1F0660F771F881F991F1AF0BA95CD
:100FF000C9F714C0B13091F00E949E08B1E0089585
:101000000C949E08672F782F8827B85F39F0B93F76
:10101000CCF3869577956795B395D9F73EF490957F
:101020008095709561957F4F8F4F9F4F0895E894FD
:1010300009C097FB3EF490958095709561957F4F20
:101040008F4F9F4F9923A9F0F92F96E9BB279395CE
:10105000F695879577956795B795F111F8CFFAF4DE
:10106000BB0F11F460FF1BC06F5F7F4F8F4F9F4F0F
:1010700016C0882311F096E911C0772321F09EE86D
:10108000872F762F05C0662371F096E8862F70E0D3
:1010900060E02AF09A95660F771F881FDAF7880FAD
:1010A0009695879597F9089597F99F6780E870E07E
:1010B00060E008959FEF80EC089500240A941616CE
:1010C000170618060906089500240A941216130636
:1010D000140605060895092E0394000C11F48823C4
:1010E00052F0BB0F40F4BF2B11F460FF04C06F5FE0
:1010F0007F4F8F4F9F4F089557FD9058440F551FB6
:1011000059F05F3F71F04795880F97FB991F61F089
:101110009F3F79F087950895121613061406551F00
:10112000F2CF4695F1DF08C0161617061806991F6C
:10113000F1CF86957105610508940895E894BB2761
:1011400066277727CB0197F90895052E97FB1EF4A4
:1011500000940E94BC0857FD07D00E94010907FCBB
:1011600003D04EF40C94BC085095409530952195D1
:101170003F4F4F4F5F4F08959095809570956195C3
:101180007F4F8F4F9F4F0895EE0FFF1F0590F491F3
:10119000E02D09942F923F924F925F926F927F922F
:1011A0008F929F92AF92BF92CF92DF92EF92FF9277
:1011B0000F931F93CF93DF93CDB7DEB7CA1BDB0B23
:1011C0000FB6F894DEBF0FBECDBF09942A883988C8
:1011D00048885F846E847D848C849B84AA84B984CF
:1011E000C884DF80EE80FD800C811B81AA81B981DB
:1011F000CE0FD11D0FB6F894DEBF0FBECDBFED01EF
:101200000895A1E21A2EAA1BBB1BFD010DC0AA1F47
:10121000BB1FEE1FFF1FA217B307E407F50720F05F
:10122000A21BB30BE40BF50B661F771F881F991FDA
:101230001A9469F760957095809590959B01AC0123
:10124000BD01CF010895283008F027E03327DA01E7
:10125000990F311D87FD916000966105710539F484
:1012600032602E5F3D9330E32A95E1F708959F3F6A
:1012700030F080387105610509F03C5F3C5F3D93BB
:10128000913008F08068911DDF93CF931F930F93E7
:10129000FF92EF92192F987F9695E92F9695969544
:1012A000E90FFF27E253FF4F99273327EE24FF244E
:1012B000A701E70105900894079428F4360FE71E6C
:1012C000F81E491F511D660F771F881F991F06942E
:1012D000A1F70590079428F4E70EF81E491F561F42
:1012E000C11D770F881F991F661F0694A1F70590EF
:1012F000079428F4F80E491F561FC71FD11D880FE9
:10130000991F661F771F0694A1F70590079420F494
:10131000490F561FC71FD81F990F661F771F881FB9
:101320000694A9F784911095177041F0D695C7954A
:1013300057954795F794E7941A95C1F7E4E7F0E0DD
:1013400068941590159135916591959105907FE27E
:101350007395E118F10A430B560BC90BD009C0F77E
:10136000E10CF11E431F561FC91FD01D7EF47033C0
:1013700011F48A95E6CFE894015030F0080F0AF492
:101380000027021708F4202F2395022F7A3328F024
:1013900079E37D932A95E9F710C07D932A9589F624
:1013A000069497956795379517951794E118F10A64
:1013B000430B560BC90BD00998F023957E9173957A
:1013C0007A3308F070E37C932013B8F77E91706154
:1013D0007D9330F0839571E37D9370E32A95E1F777
:1013E0001124EF90FF900F911F91CF91DF919927DA
:1013F00087FD90950895FC010590615070400110A3
:10140000D8F7809590958E0F9F1F0895FC0161502D
:10141000704001900110D8F7809590958E0F9F1F16
:1014200008950F931F93CF93DF93FB01238121FD39
:1014300003C08FEF9FEF2CC022FF16C0468157815B
:10144000248135814217530744F4A081B1819D0165
:101450002F5F3F4F318320838C93268137812F5F0D
:101460003F4F3783268314C08B01EC01FB010084BE
:10147000F185E02D0995892BE1F6D80116968D911D
:101480009C911797019617969C938E931697CE0171
:10149000DF91CF911F910F910895FA01AA2728306B
:1014A00051F1203181F1E8946F936E7F6E5F7F4F31
:1014B0008F4F9F4FAF4FB1E03ED0B4E03CD0670FAD
:1014C000781F891F9A1FA11D680F791F8A1F911D00
:1014D000A11D6A0F711D811D911DA11D20D009F450
:1014E00068943F912AE0269F11243019305D319392
:1014F000DEF6CF010895462F4770405D4193B3E07B
:101500000FD0C9F7F6CF462F4F70405D4A3318F021
:10151000495D31FD4052419302D0A9F7EACFB4E0D2
:10152000A6959795879577956795BA95C9F700978A
:101530006105710508959B01AC010A2E069457952B
:10154000479537952795BA95C9F7620F731F841F82
:10155000951FA01D089510E0C8EBD0E004C0FE0167
:101560000E94C4082196C93BD107C9F7F894FFCF60
:101570000A0102E9000002020203030303ED00F284
:1015800000F700FC00F700ED00F200000000010190
:101590000101ED00F200F700FC00F700ED00F200A1
:1015A00006060607070707EC00F100F600FB00F649
:1015B00000EC00F10004040405050505EC00F10051
:1015C000F600FB00F600EC00F10002020203030348
:1015D00003EC00F100F600FB00F600EC00F1000067
:1015E000000001010101EC00F100F600FB00F60033
:0E15F000EC00F1003F065B4F666D7D077F6FDC
:00000001FF
