:100000000C94B9000C94E1000C94E1000C94E10014
:100010000C94E1000C94E1000C94E1000C94E100DC
:100020000C94E1000C94E1000C94E1000C94E100CC
:100030000C94E1000C9450010C94E1000C94E1004C
:100040000C94E1000C94E1000C94E1000C94E300AA
:100050000C94E1000C94E1000C94E100540256026F
:100060005D025F026B027C0288028F026E616E008D
:10007000696E660000407A10F35A00A0724E1809AB
:100080000010A5D4E80000E87648170000E40B54FF
:10009000020000CA9A3B000000E1F50500008096CE
:1000A0009800000040420F000000A0860100000000
:1000B000102700000000E8030000000064000000BA
:1000C00000000A00000000000100000000002C7683
:1000D000D888DC674F0823DFC1DFAE59E1B1B7969E
:1000E000E5E3E453C63AE651997696E8E6C28426FB
:1000F000EB898C9B62ED407C6FFCEFBC9C9F40F2D7
:10010000BAA56FA5F490055A2AF75C936B6CF96752
:100110006DC11BFCE0E40D47FEF520E6B500D0ED17
:10012000902E0300943577050080841E080000207F
:100130004E0A000000C80C333333330F986E12831D
:100140001141EF8D2114893BE65516CFFEE6DB18F1
:10015000D1844B381BF77C1D901DA4BBE4242032B6
:1001600084725E228100C9F124ECA1E53D27780765
:10017000910711241FBECFEFD4E0DEBFCDBF12E048
:10018000A0E0B1E0E0EFFFE102C005900D92A236E1
:10019000B107D9F722E0A2E6B2E001C01D92A93969
:1001A000B207E1F710E0C8EBD0E004C02197FE01F0
:1001B0000E947C0CC73BD107C9F70E9468060C94CB
:1001C000EB0F0C9400001F920F920FB60F921124A8
:1001D000CF92DF92EF92FF922F933F934F935F93D3
:1001E0006F937F938F939F93AF93BF93EF93FF93FF
:1001F000809178006091790070E0762F6627680F13
:10020000711D80E090E00E94BF0B9B01AC0160E893
:1002100079E986ED97E40E941E0B0E94900B6B011A
:100220007C0143E00E94C3028FE4C81681E0D80637
:10023000E104F10410F087E01CC085E4C81681E0F9
:10024000D806E104F10410F086E013C08BE3C81671
:1002500081E0D806E104F10410F085E00AC081E3F2
:10026000C81681E0D806E104F10410F081E001C075
:1002700080E00E944802FF91EF91BF91AF919F9162
:100280008F917F916F915F914F913F912F91FF904F
:10029000EF90DF90CF900F900FBE0F901F901895AA
:1002A0001F920F920FB60F9211242F933F934F93EB
:1002B0005F936F937F938F939F93AF93BF93EF93CE
:1002C000FF9381E892E00E944206FF91EF91BF9177
:1002D000AF919F918F917F916F915F914F913F91DE
:1002E0002F910F900FBE0F901F901895209A289A6B
:1002F0008091E50080638093E5008091E6006623AD
:1003000061F087678093E6008091E70080628093C8
:10031000E7008091E400806C0BC085678093E60065
:100320008091E70086648093E7008091E400806814
:100330008093E4000895E4EEF0E0808181608083A2
:100340002FEF84E39CE0215080409040E1F700C013
:10035000000080818F7780830895CF92DF92EF92A3
:10036000FF920F931F93CF93DF93E62FF0E0E258B5
:10037000FE4F408150E025E1829FC0011124805052
:100380009F4FFC0120E030E0C1E0D0E06C01C20EE4
:10039000D31EBA01022E02C0759567950A94E2F742
:1003A00007811085D80160FF0BC0FC90BE01D6010B
:1003B0000C9002C0660F771F0A94E2F76F290CC0F9
:1003C0007C917E01D6010C9002C0EE0CFF1C0A94B9
:1003D000E2F76E2D60956723D8016C932F5F3F4F36
:1003E00032962830310591F6DF91CF911F910F9110
:1003F000FF90EF90DF90CF900895CF92DF92EF9231
:10040000FF920F931F93CF93DF9325E1829FC0014B
:10041000112480509F4FFC0120E030E070E0C1E0EB
:10042000D0E06C01C20ED31EAB01022E02C0559566
:1004300047950A94E2F707811085D80140FF0BC069
:10044000FC90AE01D6010C9002C0440F551F0A94D7
:10045000E2F74F290CC05C917E01D6010C9002C0DE
:10046000EE0CFF1C0A94E2F74E2D40954523D8016F
:100470004C932F5F3F4F32962830310591F6DF9134
:10048000CF911F910F91FF90EF90DF90CF90089543
:1004900090E08830910508F054C0FC01E25DFF4F08
:1004A0008091ED000C947C0C8F7E01C08061809364
:1004B000ED008091F2008F7E14C08F7E1EC08F7E73
:1004C0008093ED008091F2008F7E8093F200809106
:1004D000F70080610BC08F7E8093ED008091F20069
:1004E00080618093F2008091F7008F7E8093F70007
:1004F0008091FC008F7E23C080618093ED0080910D
:10050000F2008F7E8093F2008091F7008F7E12C000
:1005100080618093ED008091F2008F7E06C0806143
:100520008093ED008091F20080618093F2008091D1
:10053000F70080618093F7008091FC0080618093D8
:10054000FC000895882321F08091FB00806103C0A6
:100550008091FB008F7E8093FB000895882321F01B
:100560008091FC00816003C08091FC008E7F8093AD
:10057000FC0008958091FB00829581700895809120
:10058000FC00817008954F925F926F927F928F92DC
:100590009F92AF92BF92CF92DF92EF92FF920F9312
:1005A0001F93CF93DF936B017C01D42FDC01CB0130
:1005B00081569947AE4FBF4F8F3D984CA041B10532
:1005C00008F042C0C6E0C41BF7FE0EC060E480E045
:1005D0000E94FD01C7E0CD1BF094E094D094C0943C
:1005E000C11CD11CE11CF11C15E0D0E08AE0482EB2
:1005F000512C612C712C812F012E000C990B8C1722
:100600009D0714F480E021C0C701B601A301920147
:100610000E945D0C49015A01812F11500E94AD01C9
:1006200064017501C114D104E104F10421F7812FA3
:10063000012E000C990B8C179D0724F3812F60E08D
:1006400011500E94FD01F3CF81E0DF91CF911F9106
:100650000F91FF90EF90DF90CF90BF90AF909F9061
:100660008F907F906F905F904F90089546E00C942C
:10067000C302CF93882319F080E00E94480280E0F3
:100680000E94AE0280E00E94A202C5E060E08C2FD2
:100690000E94FD01C150D0F7CF91089581E00C94E4
:1006A0003903FC01CB017683658351834083308716
:1006B0002783128221E02483138241E06CE272E0FE
:1006C0000C94BE050895440F642BFC0163830895C8
:1006D000CF93DF93EC018A81813009F446C048F161
:1006E000823009F465C0833009F07CC080917A00C3
:1006F0008F7780937A00809164008F60809364008C
:1007000083B7817F866083BFF89483B7816083BF9E
:100710007894889583B78E7F83BF809164008E7FA5
:100720008093640080917A00806880937A00789446
:1007300059C041E065E372E08D819E810E94BE0553
:1007400066E780E00E94FD0169E781E00E94FD010B
:1007500068E382E00E94FD0168E383E00E94FD01FE
:1007600060E084E00E94AD011EC041E06FE372E0F2
:100770008D819E810E94BE0580E00E94A20268E7F2
:1007800080E00E94FD0167E781E00E94FD0160E5D5
:1007900082E00E94FD0169E783E00E94FD0160E0C4
:1007A00084E00E94FD0160E085E00E94FD011AC026
:1007B00067E472E08D819E810E94AC05E881F98139
:1007C00044815581668177818D819E810E940B06CF
:1007D00041E069E572E08D819E810E94BE0580E066
:1007E0000E943903EA81EF5FEA83F0E0E857FE4FA9
:1007F00080818C83DF91CF910895CF93DF93EC01BB
:100800008C81882339F081508C83811103C0CE0103
:100810000E9468038A81823009F443C0833009F45E
:1008200056C0813009F064C08C818E31D1F46EE302
:1008300080E00E94FD0168E481E00E94FD016CE718
:1008400082E00E94FD0167E783E00E94FD0168E706
:1008500084E00E94FD0168E785E0DF91CF910C9470
:10086000FD018431B1F480917A00806480937A0034
:100870006EE380E00E94FD0168E481E00E94FD01DA
:1008800060E082E00E94FD0181E0DF91CF910C9455
:10089000A202843168F580917A00806480937A00A6
:1008A00027C08C81843141F480E00E94390368E7DD
:1008B00080E00E94FD0102C08431D0F488819981DA
:1008C0000E94A40445E0DF91CF910C94C30288817B
:1008D00099810E94C5040E9436036B8160FF08C0A5
:1008E0006695617088819981DF91CF910C94F404B1
:1008F000DF91CF910895EF92FF920F931F93CF93C3
:10090000DF93EC017B018C01005F1F4FC8010E9447
:100910002A05FA8AE98A81E090E0A0E0B0E08883C5
:100920009983AA83BB83C8010E948B056C837D8356
:100930008E839F83DF91CF911F910F91FF90EF9056
:10094000089540960C941D050F931F93CF93DF934A
:10095000EC0140960E948B050C811D812E813F8108
:10096000DC01CB01800F911FA21FB31FBC01CD0181
:1009700095958795779567956C837D838E839F8307
:10098000DF91CF911F910F910895CF92DF92EF9257
:10099000FF920F931F93CF93DF93EC0140960E9439
:1009A0008B05688779878A879B870C811D812E81BB
:1009B0003F816B017C01C01AD10AE20AF30AA70148
:1009C0009601688179818A819B810E944D0C6C8798
:1009D0007D878E879F87DF91CF911F910F91FF9029
:1009E000EF90DF90CF9008950F93CF93DF93EC01BA
:1009F000262F4C855D856E857F8589899A8922237E
:100A0000B9F000E02AE00E94E20569E089899A894C
:100A10000E94A505488559856A857B8501E022E00D
:100A200089899A890E94E205DF91CF910F910895FB
:100A3000DF91CF910F910C940B06089580E00895FB
:100A400060E070E0CB0108956EBD0DB407FEFDCFF0
:100A50008EB50895CF93DF93EC0186E084B981E0F1
:100A600085B98AE18A95F1F700C0209A289A80E535
:100A70008CBD289866E4CE010E94240563EECE0169
:100A80000E94240560E3CE010E9424056FEACE0196
:100A90000E94240560EFCE010E94240567E0CE018C
:100AA0000E94240561E0CE010E942405289A8FE966
:100AB0009FE00197F1F700C00000DF91CF9108950A
:100AC0000F931F93CF938C01289861E40E94240513
:100AD0008331D1F460E0C8010E94240560E0C801C0
:100AE0000E94240560E0C8010E942405C82F60E030
:100AF000C8010E9424056C2F70E0762F6627289A83
:100B0000682B80E090E003C06FEF7FEFCB01CF91C7
:100B10001F910F9108950C946005DC011092C5009F
:100B200083E38093C400E1ECF0E0908198619083CE
:100B300086E08093C20054961C92549755961C925E
:100B4000808180688083089508958091C00085FF2A
:100B5000FCCF6093C60008950F931F93CF93DF934C
:100B60008C01EB016991662321F0C8010E94A50563
:100B7000F9CFDF91CF911F910F910895FF920F93BD
:100B80001F93CF93DF938C01F42EEB0169916623C1
:100B900021F0C8010E94A505F9CFFF2069F06DE0A2
:100BA000C8010E94A5056AE0C801DF91CF911F919D
:100BB0000F91FF900C94A505DF91CF911F910F919C
:100BC000FF900895EF92FF920F93CF93DF93CDB7ED
:100BD000DEB7A3970FB6F894DEBF0FBECDBF7C0182
:100BE000CB01BA0130E0AE014F5F5F4F0E94020FB0
:100BF000402FBE016F5F7F4FC7010E94BE05A396C5
:100C00000FB6F894DEBF0FBECDBFDF91CF910F912D
:100C1000FF90EF9008950F931F93CF93DF93CDB77D
:100C2000DEB72C970FB6F894DEBF0FBECDBF8C0198
:100C3000CB01BA012AE0AE014F5F5F4F0E940D0F5A
:100C4000BE016F5F7F4FC8010E94AC056DE0C80117
:100C50000E94A5056AE0C8010E94A5052C960FB662
:100C6000F894DEBF0FBECDBFDF91CF911F910F91E2
:100C70000895CF93C091C6006C2F0E94A5058C2FBC
:100C8000CF910895CF93DF93EC010E9439068D3008
:100C900019F481E08C8B07C09D89FE01E90FF11DDD
:100CA00080839F5F9D8BDF91CF910895FC01258903
:100CB000E20FF11D1082FC01148A158A0895FC01CF
:100CC00091E08589811101C090E08489892308958C
:100CD00080EC8AB980E38BB983E68DB980EE8EB95A
:100CE0005E9A8091640088608093640080917C00AB
:100CF0008E6580937C0080917A008A6880937A0068
:100D0000789400E410E28FE19EE40197F1F700C0CF
:100D10000000809163028F5F809363028091630281
:100D20008A3030F01092630284E692E00E94FD0364
:100D300089B1909162028071891759F089B18071EF
:100D40008093620280916202882319F08BB1802720
:100D50008BB981E892E00E945F068823A1F281E8C6
:100D600092E00E945606EC0188818435B9F140F486
:100D7000813551F1823581F0833409F0B5C06BC003
:100D8000813711F120F4833609F465C0ADC0823794
:100D900069F0843719F1A8C041E061E084E692E08F
:100DA0000E94630341E06CE871E009C040E061E04B
:100DB00084E692E00E94630341E064EA71E081E826
:100DC00092E00E94BE059FCF40E060E084E692E0A2
:100DD0000E94630341E06CEB71E0F1CF89818F33B6
:100DE00079F46BEC71E081E892E00E94AC05E0914F
:100DF0006402F091650244815581668177813CC02F
:100E00006DED71E081E892E00E94AC0518834AE044
:100E100050E060E070E0CE010E94F50C6B017C01B7
:100E2000672B682B692B41F4E0916402F091650215
:100E3000C084D184E284F384B701A60181E892E002
:100E40000E940B06E0916402F0916502C482D58293
:100E5000E682F78258CF89818F3399F46FEE71E083
:100E600081E892E00E94AC05E0916402F091650295
:100E7000408151816281738181E892E00E940B067A
:100E800042CF61E072E081E892E00E94AC051883F5
:100E90004AE050E060E070E0CE010E94F50CE09185
:100EA0006402F091650280849184A284B384C4803A
:100EB000D580E680F780A50194012C193D094E09E3
:100EC0005F090E945D0C69017A01BA01A90181E8FC
:100ED00092E00E940B06E0916402F0916502C082EC
:100EE000D182E282F3820FCF41E063E172E067CF0B
:100EF00081E892E00E948D0560E080E892E00E9427
:100F0000760161E872E08DE692E00E947B0420E8C1
:100F100032E04DE652E061E872E084E692E00C9443
:100F2000510384E692E00E9462038DE692E00E9403
:100F3000A10480E892E00E949B0181E892E00C9479
:100F4000A405A0E1B0E0E7EAF7E00C948D0C7C0189
:100F50001B016A01FC0117821682838181FF44C351
:100F60009E012F5F3F4F3901F7019381F10193FDFE
:100F7000859193FF81911F01882309F431C3853244
:100F800039F493FD859193FF81911F01853239F4E6
:100F9000B70190E00E943E0F56016501E5CF10E0D9
:100FA000512C912CFFE1F915D8F08B3279F038F4FF
:100FB000803279F08332A1F4F92DF0612EC08D32A8
:100FC00061F0803369F4292D21602DC0392D326004
:100FD000932E892D8460982E2AC0E92DE86015C0D3
:100FE00097FC2DC020ED280F2A3088F496FE06C00D
:100FF0003AE0139F200D1124122F19C08AE0589E49
:10100000200D1124522EE92DE0629E2E10C08E324A
:1010100031F496FCE5C2F92DF0649F2E08C08C36A1
:1010200021F4292D2068922E02C0883641F4F10166
:1010300093FD859193FF81911F018111B3CF9BEBAC
:10104000980F933020F4992D9061805E07C09BE942
:10105000980F933008F066C1992D9F7E96FF16E099
:101060009F73992E853619F49064992E08C08636A0
:1010700021F4392F3068932E02C01111115097FEC0
:1010800007C01C3350F444244394410E27E00BC0A6
:10109000183038F027E017E005C027E09CE3492E20
:1010A00002C0212F412C560184E0A80EB11CF6018C
:1010B0006081718182819381042DA3010E940B0EB6
:1010C0006C01F981FC87F0FF02C0F3FF06C091FCC0
:1010D00006C092FE06C000E205C00DE203C00BE2AE
:1010E00001C000E08C858C7019F001115AC29BC2BE
:1010F00097FE10C04C0CFC85F4FF04C08A8181333C
:1011000009F44A94141474F528E0241578F588E05D
:10111000482E2CC096FC2AC0812F90E08C159D058E
:101120009CF03CEFC3163FEFD30674F0892D806826
:10113000982E0AC0E2E0F0E0EC0FFD1FE10FF11D78
:101140008081803319F411501111F4CF97FE0EC035
:1011500044244394410E812F90E0C816D9062CF404
:101160001C1904C04424439401C010E097FE06C03B
:101170001C141D0434F4C601019605C085E090E0FE
:1011800002C081E090E001110196112331F0212F7E
:1011900030E02F5F3F4F820F931F252D30E08217E5
:1011A000930714F4581A01C0512C892D897049F401
:1011B000552039F0B70180E290E00E943E0F5A942A
:1011C000F7CF002329F0B701802F90E00E943E0F57
:1011D00093FC09C0552039F0B70180E390E00E94EC
:1011E0003E0F5A94F7CF97FE4CC04601D7FE02C07F
:1011F000812C912CC60188199909F301E80FF91F78
:10120000FE87ED87960124193109388B2F87012F2E
:1012100010E01195019511093FEF8316930629F40B
:10122000B7018EE290E00E943E0FC814D9044CF042
:101230008F8598898815990524F4ED85FE8581812F
:1012400001C080E3F1E08F1A91082D853E852F5F64
:101250003F4F3E872D87801691062CF0B70190E016
:101260000E943E0FD9CFC814D90441F49A81963315
:1012700020F4953319F43C8534FF81E3B70190E005
:101280004EC08A81813319F09C859F7E9C87B7016F
:1012900090E00E943E0F111105C094FC18C085E635
:1012A00090E017C0B7018EE290E00E943E0F1E5FF3
:1012B00082E001E0080FF301E80FF11D8081B70122
:1012C00090E00E943E0F802F0113F3CFE6CF85E41C
:1012D00090E0B7010E943E0FD7FC06C0C114D104B4
:1012E00041F4EC85E4FF05C0D194C194D1088DE2AE
:1012F00001C08BE2B70190E00E943E0F80E32AE03C
:10130000C216D1042CF08F5FFAE0CF1AD108F7CFC4
:10131000B70190E00E943E0FB701C601C0960E943F
:101320003E0F54C1833631F0833779F0833509F0AD
:1013300056C020C0560132E0A30EB11CF6018081D8
:10134000898301E010E0630112C05601F2E0AF0EA4
:10135000B11CF601C080D18096FE03C0612F70E001
:1013600002C06FEF7FEFC6010E94F70E8C01F92DCE
:10137000FF7714C0560122E0A20EB11CF601C08016
:10138000D18096FE03C0612F70E002C06FEF7FEF47
:10139000C6010E94EC0E8C01F92DF0689F2EF3FD22
:1013A0001AC0852D90E008171907A8F4B70180E24C
:1013B00090E00E943E0F5A94F4CFF60197FC85917D
:1013C00097FE81916F01B70190E00E943E0F51108E
:1013D0005A94015011090115110579F7F7C08436A7
:1013E00011F0893661F5560197FE09C024E0A20E7E
:1013F000B11CF60160817181828193810AC0F2E0A3
:10140000AF0EB11CF60160817181072E000C880BB4
:10141000990BF92DFF769F2E97FF09C09095809527
:10142000709561957F4F8F4F9F4FF0689F2E2AE0F8
:1014300030E0A3010E947A0FC82EC6183FC0092DC4
:10144000853721F40F7E2AE030E01DC0097F8F36FA
:1014500091F018F4883559F0C3C0803719F08837F7
:1014600011F0BEC0006104FF09C0046007C094FE13
:1014700008C0066006C028E030E005C020E130E08A
:1014800002C020E132E0560107FF09C084E0A80E47
:10149000B11CF601608171818281938108C0F2E004
:1014A000AF0EB11CF6016081718180E090E0A30174
:1014B0000E947A0FC82EC6180F77902E96FE0BC08A
:1014C000092D0E7FC11650F494FE0AC092FC08C08C
:1014D000092D0E7E05C0DC2C092D03C0DC2C01C0BB
:1014E000D12E04FF0DC0FE01EC0DF11D8081803373
:1014F00011F4097E09C002FF06C0D394D39404C03E
:10150000802F867809F0D39403FD11C000FF06C038
:101510001C2DD51480F4150D1D190DC0D51458F4CB
:10152000B70180E290E00E943E0FD394F7CFD5142C
:1015300010F45D1801C0512C04FF10C0B70180E306
:1015400090E00E943E0F02FF17C001FD03C088E734
:1015500090E002C088E590E0B7010CC0802F86784B
:1015600059F001FF02C08BE201C080E207FD8DE26D
:10157000B70190E00E943E0FC11638F4B70180E336
:1015800090E00E943E0F1150F7CFCA94F301EC0D8A
:10159000F11D8081B70190E00E943E0FC110F5CF90
:1015A00015C0F4E0F51560F584E0581A93FE1FC0ED
:1015B000011127C02C8523FF2AC00CE610E0392D2D
:1015C0003071932EF8018491811124C0552009F4C3
:1015D000E4CCB70180E290E00E943E0F5A94F6CF2F
:1015E000F7018681978126C08FEF9FEF23C0B70157
:1015F00080E290E00E943E0F5A945110F8CFD8CF6D
:10160000512CB701802F90E00E943E0FD3CF00E70E
:1016100010E0D5CF91108052B70190E00E943E0FAC
:101620000F5F1F4FCFCF23E0251510F483E0BDCF10
:10163000512CC0CF6096E2E10C94A90C0E94320BB1
:101640000C94130C0E940C0C58F00E94050C40F0F6
:1016500029F45F3F29F00C94FC0B51110C94470CBA
:101660000C94020C0E94240C68F39923B1F35523C7
:1016700091F3951B550BBB27AA27621773078407A5
:1016800038F09F5F5F4F220F331F441FAA1FA9F33B
:1016900035D00E2E3AF0E0E832D091505040E69529
:1016A000001CCAF72BD0FE2F29D0660F771F881F8A
:1016B000BB1F261737074807AB07B0E809F0BB0B7D
:1016C000802DBF01FF2793585F4F3AF09E3F510591
:1016D00078F00C94FC0B0C94470C5F3FE4F3983EBD
:1016E000D4F3869577956795B795F7959F5FC9F77A
:1016F000880F911D9695879597F90895E1E0660FFB
:10170000771F881FBB1F621773078407BA0720F073
:10171000621B730B840BBA0BEE1F88F7E0950895DC
:101720000E942C0C88F09F5798F0B92F9927B75139
:10173000B0F0E1F0660F771F881F991F1AF0BA9575
:10174000C9F714C0B13091F00E94460CB1E0089581
:101750000C94460C672F782F8827B85F39F0B93F73
:10176000CCF3869577956795B395D9F73EF4909528
:101770008095709561957F4F8F4F9F4F0895E894A6
:1017800009C097FB3EF490958095709561957F4FC9
:101790008F4F9F4F9923A9F0F92F96E9BB27939577
:1017A000F695879577956795B795F111F8CFFAF487
:1017B000BB0F11F460FF1BC06F5F7F4F8F4F9F4FB8
:1017C00016C0882311F096E911C0772321F09EE816
:1017D000872F762F05C0662371F096E8862F70E07C
:1017E00060E02AF09A95660F771F881FDAF7880F56
:1017F0009695879597F9089597F99F6780E870E027
:1018000060E008959FEF80EC089500240A94161676
:10181000170618060906089500240A9412161306DE
:10182000140605060895092E0394000C11F488236C
:1018300052F0BB0F40F4BF2B11F460FF04C06F5F88
:101840007F4F8F4F9F4F089557FD9058440F551F5E
:1018500059F05F3F71F04795880F97FB991F61F032
:101860009F3F79F087950895121613061406551FA9
:10187000F2CF4695F1DF08C0161617061806991F15
:10188000F1CF86957105610508940895E894BB270A
:1018900066277727CB0197F90895DB018F939F93F4
:1018A0000E94820CBF91AF91A29F800D911DA39FBA
:1018B000900DB29F900D11240895052E97FB1EF4F4
:1018C00000940E94740C57FD07D00E94C40C07FCC2
:1018D00003D04EF40C94740C50954095309521959E
:1018E0003F4F4F4F5F4F089590958095709561954C
:1018F0007F4F8F4F9F4F0895EE0FFF1F0590F4917C
:10190000E02D09940E94E60CA59F900DB49F900DC8
:10191000A49F800D911D112408952F923F924F9204
:101920005F926F927F928F929F92AF92BF92CF926F
:10193000DF92EF92FF920F931F93CF93DF93CDB778
:10194000DEB7CA1BDB0B0FB6F894DEBF0FBECDBFF0
:1019500009942A88398848885F846E847D848C84C1
:101960009B84AA84B984C884DF80EE80FD800C81CA
:101970001B81AA81B981CE0FD11D0FB6F894DEBFAD
:101980000FBECDBFED010895A1E21A2EAA1BBB1B0D
:10199000FD010DC0AA1FBB1FEE1FFF1FA217B3073B
:1019A000E407F50720F0A21BB30BE40BF50B661F51
:1019B000771F881F991F1A9469F760957095809515
:1019C00090959B01AC01BD01CF010895A29FB0018C
:1019D000B39FC001A39F700D811D1124911DB29F63
:1019E000700D811D1124911D0895A0E0B0E0EBEF72
:1019F000FCE00C948E0C5C016B017A0161157105A1
:101A000019F0FB0191838083E114F10429F0C701EF
:101A10000297839708F0E5C0E5012196F501108152
:101A2000812F90E00E94E30E892B11F05E01F4CF2C
:101A30001D3229F42196F501118101E007C01B3206
:101A400021F4E5012296F501118100E0E114F10491
:101A500009F1F0E1EF16F10429F43FC010E3E114BD
:101A6000F10421F128E0E216F10401F154F4E2E07E
:101A7000EE16F10421F5812C912CA12CB0E4BB2EA3
:101A80003EC0FAE0EF16F10439F020E1E216F1046D
:101A9000B1F430C0103319F1FAE0EF2EF12CACECB8
:101AA0008A2E982CA82CACE0BA2E29C078E0E72E1C
:101AB000F12C812C912CA12CE0E1BE2E20C060E005
:101AC00070E080E090E897010F2C000C440B550B60
:101AD0000E94C40C49015A0112C0103359F4888184
:101AE0008F7D883509F0BACF19812296026080E196
:101AF000E82EF12C812C912CA12C68E0B62E40E030
:101B000060E070E0CB0127010F2C000C660877081D
:101B1000FE0150ED352E310E29E0231570F42FEB28
:101B2000210F2A3118F439EC332E06C02FE9210F8A
:101B30002A3118F529EA322E310E232D30E02E15E8
:101B40003F05DCF447FD16C086169706A806B906C1
:101B500070F0A30192010E944D0C630D711D811D57
:101B6000911D61307105810520E8920710F04FEF5B
:101B700001C041E021961081CBCF202F2170C114EC
:101B8000D10471F0442329F02197F601D183C08359
:101B900007C001FF19C02297F601D183C08314C08A
:101BA00047FF12C0222329F060E070E080E090E857
:101BB00004C06FEF7FEF8FEF9FE722E230E03093BA
:101BC00098022093970209C0222381F09095809576
:101BD000709561957F4F8F4F9F4F462F372F282F3E
:101BE00012C040E030E020E090E00DC097FFF5CF5C
:101BF00082E290E090939802809397026FEF7FEFDC
:101C00008FEF9FE7EACF642F732F822FCDB7DEB718
:101C1000E1E10C94AA0C283008F027E03327DA0120
:101C2000990F311D87FD916000966105710539F4AA
:101C300032602E5F3D9330E32A95E1F708959F3F90
:101C400030F080387105610509F03C5F3C5F3D93E1
:101C5000913008F08068911DDF93CF931F930F930D
:101C6000FF92EF92192F987F9695E92F969596956A
:101C7000E90FFF27E253FF4F99273327EE24FF2474
:101C8000A701E70105900894079428F4360FE71E92
:101C9000F81E491F511D660F771F881F991F069454
:101CA000A1F70590079428F4E70EF81E491F561F68
:101CB000C11D770F881F991F661F0694A1F7059015
:101CC000079428F4F80E491F561FC71FD11D880F0F
:101CD000991F661F771F0694A1F70590079420F4BB
:101CE000490F561FC71FD81F990F661F771F881FE0
:101CF0000694A9F784911095177041F0D695C79571
:101D000057954795F794E7941A95C1F7E4E7F0E003
:101D100068941590159135916591959105907FE2A4
:101D20007395E118F10A430B560BC90BD009C0F7A4
:101D3000E10CF11E431F561FC91FD01D7EF47033E6
:101D400011F48A95E6CFE894015030F0080F0AF4B8
:101D50000027021708F4202F2395022F7A3328F04A
:101D600079E37D932A95E9F710C07D932A9589F64A
:101D7000069497956795379517951794E118F10A8A
:101D8000430B560BC90BD00998F023957E917395A0
:101D90007A3308F070E37C932013B8F77E9170617A
:101DA0007D9330F0839571E37D9370E32A95E1F79D
:101DB0001124EF90FF900F911F91CF91DF91992700
:101DC00087FD9095089591110C94D80F803219F0E9
:101DD00089508550C8F70895FC0105906150704006
:101DE0000110D8F7809590958E0F9F1F0895FC01E4
:101DF0006150704001900110D8F7809590958E0F3A
:101E00009F1F08952532310520F4223010F00C94E4
:101E10000D0FFA011082CA010895BB272A3051F430
:101E2000992342F4BDE290958095709561957F4F1E
:101E30008F4F9F4F0C941D0FBB27FA01A62F6217DF
:101E4000710581059105330B30FB66F0AA27660FFB
:101E5000771F881F991FAA1FA21710F0A21B639556
:101E60003850A9F7A05DAA3308F0A95DA19336F711
:101E7000B111B1931082CA010C94DB0F0F931F9321
:101E8000CF93DF93FB01238121FD03C08FEF9FEFF1
:101E90002CC022FF16C0468157812481358142170C
:101EA000530744F4A081B1819D012F5F3F4F3183DF
:101EB00020838C93268137812F5F3F4F3783268382
:101EC00014C08B01EC01FB010084F185E02D099524
:101ED000892BE1F6D80116968D919C911797019662
:101EE00017969C938E931697CE01DF91CF911F91F9
:101EF0000F910895FA01AA27283051F1203181F17C
:101F0000E8946F936E7F6E5F7F4F8F4F9F4FAF4F01
:101F1000B1E03ED0B4E03CD0670F781F891F9A1F14
:101F2000A11D680F791F8A1F911DA11D6A0F711DC8
:101F3000811D911DA11D20D009F468943F912AE0D4
:101F4000269F11243019305D3193DEF6CF010895BC
:101F5000462F4770405D4193B3E00FD0C9F7F6CFED
:101F6000462F4F70405D4A3318F0495D31FD4052B5
:101F7000419302D0A9F7EACFB4E0A695979587954B
:101F800077956795BA95C9F700976105710508952A
:101F90009B01AC010A2E06945795479537952795D6
:101FA000BA95C9F7620F731F841F951FA01D08956E
:101FB000992788270895DC01FC01672F7191772309
:101FC000E1F7329704C07C916D9370836291AE17F4
:101FD000BF07C8F3089510E0C8EBD0E004C0FE01CD
:101FE0000E947C0C2196C93BD107C9F7F894FFCF1A
:101FF00002020203030303ED00F200F700FC00F706
:1020000000ED00F20000000001010101ED00F2000E
:10201000F700FC00F700ED00F200060606070707D0
:1020200007EC00F100F600FB00F600EC00F1000404
:10203000040405050505EC00F100F600FB00F600C0
:10204000EC00F10002020203030303EC00F100F6CE
:1020500000FB00F600EC00F10000000001010101AE
:10206000EC00F100F600FB00F600EC00F1003F068A
:102070005B4F666D7D077F6F00281E005374617291
:102080007420766572626F73652073747265616D1A
:10209000696E67005374617274206D696E696D6159
:1020A0006C2073747265616D696E670053746F7034
:1020B0002073747265616D696E6700437572726535
:1020C0006E7420746172652069733A20004E6577E2
:1020D00020746172652073657420746F3A20004328
:1020E000757272656E74206761696E2069733A203B
:1020F000004E6577206761696E2073657420746F88
:102100003A2000436F6D6D616E64206E6F742072B3
:1021100065636F676E697A65642021000D0A0A495C
:102120006E69740A00534D3A57616B6575700053C0
:102130004D3A5461726500095461726520636F6D98
:10214000706C657465643A2000534D3A49646C655F
:0221500000008D
:00000001FF
