:100000000C94B1000C94D9000C94D9000C94D90034
:100010000C94D9000C94D9000C94D9000C94D900FC
:100020000C94D9000C94D9000C94D9000C94D900EC
:100030000C94D9000C9449010C94D9000C94D9006B
:100040000C94D9000C94D9000C94D9000C94DB00CA
:100050000C94D9000C94D9000C94D9006E616E00F8
:10006000696E660000407A10F35A00A0724E1809BB
:100070000010A5D4E80000E87648170000E40B540F
:10008000020000CA9A3B000000E1F50500008096DE
:100090009800000040420F000000A0860100000010
:1000A000102700000000E8030000000064000000CA
:1000B00000000A00000000000100000000002C7693
:1000C000D888DC674F0823DFC1DFAE59E1B1B796AE
:1000D000E5E3E453C63AE651997696E8E6C284260B
:1000E000EB898C9B62ED407C6FFCEFBC9C9F40F2E7
:1000F000BAA56FA5F490055A2AF75C936B6CF96763
:100100006DC11BFCE0E40D47FEF520E6B500D0ED27
:10011000902E0300943577050080841E080000208F
:100120004E0A000000C80C333333330F986E12832D
:100130001141EF8D2114893BE65516CFFEE6DB1801
:10014000D1844B381BF77C1D901DA4BBE4242032C6
:1001500084725E228100C9F124ECA1E53D2761048F
:100160006A0411241FBECFEFD4E0DEBFCDBF11E083
:10017000A0E0B1E0EAEAF6E102C005900D92A03AF3
:10018000B107D9F721E0A0EAB1E001C01D92A93B77
:10019000B207E1F710E0C0EBD0E004C02197FE0108
:1001A0000E942109CF3AD107C9F70E940D040C948F
:1001B000480B0C9400001F920F920FB60F9211245F
:1001C000CF92DF92EF92FF922F933F934F935F93E3
:1001D0006F937F938F939F93AF93BF93EF93FF930F
:1001E000609178008091790090E0982F8827680FBF
:1001F000792F711D90E080E00E9474089B01AC0192
:1002000060E879E986ED97E40E94D3070E944508EB
:100210006B017C0143E00E947F038FE4C81681E0FC
:10022000D806E104F104C0F087E00E94FD02FF91CE
:10023000EF91BF91AF919F918F917F916F915F915E
:100240004F913F912F91FF90EF90DF90CF900F90C3
:100250000FBE0F901F90189585E4C81681E0D80650
:10026000E104F10410F086E0E0CF8BE3C81681E0F2
:10027000D806E104F10410F085E0D7CF81E3C81679
:1002800081E0D806E104F10410F081E0CECF80E0F7
:10029000CCCF1F920F920FB60F9211242F933F9342
:1002A0004F935F936F937F938F939F93AF93BF937E
:1002B000EF93FF9383EA91E00E942402FF91EF9174
:1002C000BF91AF919F918F917F916F915F914F916E
:1002D0003F912F910F900FBE0F901F901895DC014A
:1002E0001092C50083E38093C400E1ECF0E09081BC
:1002F0009861908386E08093C20054961C92549734
:1003000055961C928081806880830895089580911D
:10031000C00085FFFCCF6093C60008950F931F9324
:10032000CF93DF938C01EB016991662321F0C80123
:100330000E948701F9CFDF91CF911F910F9108950E
:10034000FF920F931F93CF93DF938C01F42EEB0159
:100350006991662321F0C8010E948701F9CFFF202F
:1003600069F06DE0C8010E9487016AE0C801DF9171
:10037000CF911F910F91FF900C948701DF91CF9146
:100380001F910F91FF900895EF92FF920F93CF93DB
:10039000DF93CDB7DEB7A3970FB6F894DEBF0FBEDD
:1003A000CDBF7C01CB01BA0130E0AE014F5F5F4FA2
:1003B0000E946E0A402FBE016F5F7F4FC7010E94EF
:1003C000A001A3960FB6F894DEBF0FBECDBFDF919C
:1003D000CF910F91FF90EF9008950F931F93CF93BC
:1003E000DF93CDB7DEB72C970FB6F894DEBF0FBE04
:1003F000CDBF8C01CB01BA012AE0AE014F5F5F4F48
:100400000E94790ABE016F5F7F4FC8010E948E0172
:100410006DE0C8010E9487016AE0C8010E9487015F
:100420002C960FB6F894DEBF0FBECDBFDF91CF91F3
:100430001F910F910895CF93C091C6006C2F0E9419
:1004400087018C2FCF910895CF93DF93EC010E9409
:100450001B028D3029F481E08C8BDF91CF910895C0
:100460009D89FE01E90FF11D80839F5F9D8BF5CF74
:10047000DC015596EC915597E80FF92FF11D10828C
:1004800054961C92549755961C920895FC0191E045
:100490008589811101C090E0848989230895209A7B
:1004A000289A8091E50080638093E5008091E600C2
:1004B000662371F087678093E6008091E700806291
:1004C0008093E7008091E400806C8093E4000895BD
:1004D00085678093E6008091E70086648093E7005B
:1004E0008091E4008068F1CFE4EEF0E080818160EB
:1004F00080832FEF84E39CE0215080409040E1F71F
:1005000000C0000080818F77808308951F93CF9370
:10051000DF93E62FF0E0E258FE4F608170E015E1D6
:10052000819FC001112480509F4F30E020E0A1E066
:10053000B0E0F901EE0FFF1FE80FF91F0780F0850B
:10054000E02DEC01C20FD31F4881ED0102C0CC0F9A
:10055000DD1F4A95E2F7AE01EB01022E02C0D595F0
:10056000C7950A94E2F75081C0FF0BC0452B40832A
:100570002F5F3F4F28303105E1F6DF91CF911F917A
:10058000089540954523F3CF1F93CF93DF9315E153
:10059000819FC001112480509F4F30E020E0A1E0F6
:1005A000B0E070E0F901EE0FFF1FE80FF91F0780C0
:1005B000F085E02DEC01C20FD31F4881ED0102C090
:1005C000CC0FDD1F4A95E2F7AE01EB01022E02C00F
:1005D000D595C7950A94E2F75081C0FF0BC0452B13
:1005E00040832F5F3F4F28303105E1F6DF91CF91F7
:1005F0001F91089540954523F3CF883008F041C0FE
:10060000E82FF0E0E85FFC4F8091ED000C942109A9
:1006100010031C031E032F03420349034B0357031C
:100620008F7E8093ED008091F2008F7E8093F200A8
:100630008091F7008F7E1EC08061F3CF8F7E809304
:10064000ED008091F2008F7E8093F2008091F700A0
:100650008F7E8093F7008091FC00806110C08F7EB8
:100660008093ED008091F2008F7E8093F200809164
:10067000F70080618093F7008091FC008F7E80936B
:10068000FC0008958F7E8093ED008091F2008061E0
:10069000CDCF8061D4CF80618093ED008091F20056
:1006A0008F7E8093F2008091F7008061D2CF8061CD
:1006B0008093ED008091F2008061F3CF882331F0C8
:1006C0008091FB0080618093FB0008958091FB0086
:1006D0008F7EF9CF882331F08091FC008160809378
:1006E000FC0008958091FC008E7FF9CF8091FB0083
:1006F0008295817008958091FC00817008954F92D9
:100700005F926F927F928F929F92AF92BF92CF92A1
:10071000DF92EF92FF920F931F93CF93DF936B01C2
:100720007C01C42FDC01CB0181569947AE4FBF4FEE
:100730008F3D984CA041B10508F052C086E0841B63
:10074000F7FE0DC060E40E94C40287E08C1BF094A9
:10075000E094D094C094C11CD11CE11CF11C15E0A4
:10076000C82FD0E08AE0482E512C612C712C812FAB
:10077000012E000C990B8C179D0794F480E0DF91FB
:10078000CF911F910F91FF90EF90DF90CF90BF908E
:10079000AF909F908F907F906F905F904F90089553
:1007A000C701B601A30192010E94020949015A0141
:1007B000812F11500E94860264017501C114D10479
:1007C000E104F104A1F6812F012E000C990B8C1786
:1007D0009D07A4F260E0812F0E94C4021150F3CF64
:1007E00081E0CDCF46E00C947F03CF93882319F0AE
:1007F00080E00E94FD0280E00E946A0380E00E9487
:100800005E03C5E060E08C2F0E94C402C150D0F7A7
:10081000CF91089581E00C94F50380EC8AB980E3D0
:100820008BB983E68DB980EE8EB95E9A5F9A80911E
:100830007C008E6580937C0080917A008A6880932A
:100840007A00789445E069E370E380E090E00E94EC
:100850007F0387E00E94FD02C0E48FE19EE40197E0
:10086000F1F700C000008091A1018F5F8093A1018A
:100870008091A1018A3010F01092A10189B190916C
:10088000A0018071891759F089B180718093A0010E
:100890008091A001882319F08BB18C278BB983EA52
:1008A00091E00E9446028823C1F283EA91E00E940F
:1008B000380241E068E871E083EA91E00E94A0011B
:1008C000CCCF83EA91E00E946F0160E082EA91E080
:1008D0000C944F0282EA91E00E94740283EA91E054
:1008E0000C948601AFE0B0E0E8E7F4E00C9427094F
:1008F0006C011B015A01FC0117821682838181FF62
:1009000048C39E012F5F3F4F4901F6019381F101DA
:1009100093FD859193FF81911F01882309F4E7C21C
:10092000853239F493FD859193FF81911F018532C2
:1009300039F4B60190E00E94AA0A35015301E5CFCF
:10094000F12C512C00E0003238F48B3209F190F494
:100950008032F9F0833209F107FD34C020ED280F11
:100960002A3020F506FF1BC0FAE0FF9E200D11245F
:10097000F22E05C08D3279F0803371F70160F101FC
:1009800093FD859193FF81911F018111DCCF1AC0E6
:1009900002600460F4CF0860F2CF0061F0CF3AE06B
:1009A000539E200D1124522E0062E9CF8E3221F485
:1009B00006FD9DC20064E3CF8C3611F40068DFCFE2
:1009C0008836E9F29BEB980F933008F05FC0006126
:1009D000805E06FD02C046E0F42E102F1F738536A0
:1009E00009F05BC0106417FF61C08F2D9BE39F155A
:1009F00008F48BE344244394480E27E03501F4E0E7
:100A00006F0E711CF5016081718182819381042DCB
:100A1000A4010E9480095C01F981FC87F0FF03C0FA
:100A20000DE2F3FF07C00BE211FD04C0012F0470BB
:100A300012FD00E22C852C70E22E09F457C0011142
:100A4000ABC2F3E0E12CF515A0F483E0E52CE81A45
:100A500013FD08C0B60180E290E00E94AA0AEA9461
:100A6000E110F8CF002329F0B601802F90E00E941A
:100A7000AA0A3C852CE5A22E20E0B22E33FD04C04C
:100A800090E6A92E90E0B92E107122C09BE9980F34
:100A9000933008F033C10F7E9CCF863611F4106876
:100AA000A2CFFF2009F49FCFFA949DCFE7E02F2D2E
:100AB000EF1518F427E037E0F32E412C9FCF1111EA
:100AC0008052B60190E00E94AA0A8FEFA81AB80AD5
:100AD000F50184918111F3CFEE2009F42FCFB601F7
:100AE00080E290E00E94AA0AEA94F6CF17FF6FC056
:100AF0004A0CFC85F4FF04C08A81813309F44A94CE
:100B000014140CF086C028E0241510F488E0482E58
:100B100085E090E017FF06C0C501B7FE02C090E077
:100B200080E0019601110196FF2031F02F2D30E079
:100B30002F5F3F4F820F931F5816190619F014F0BC
:100B4000E52CE81A812F897011F4E11067C00023A9
:100B500029F0B601802F90E00E94AA0A13FD02C07E
:100B6000E11063C017FF7CC08501B7FE02C010E032
:100B700000E0C501841991092C016F2D70E0EE276A
:100B8000FF27E61BF70BFF87EE870F3F100729F4BF
:100B9000B6018EE290E00E94AA0AA016B1060CF4FB
:100BA0004BC0401651060CF047C0F501E01BF10B9D
:100BB000E80DF91D8181015011092E853F8502172D
:100BC0001307E4F1B60190E00E94AA0ADECF16FDF9
:100BD0009FCFEF2DF0E0EA15FB0534F03CEFA316B4
:100BE0003FEFB3060CF010683296E80DF91D01C016
:100BF000FA94FF2019F082918033D1F317FF88CF48
:100C0000442443944F0CFA141B0431F02CF0FA18CE
:100C10007FCF442443947CCFF12C7ACFB60180E27D
:100C200090E00E94AA0AEA9490CFB60180E390E097
:100C30000E94AA0AEA9494CF80E3BDCFA016B10621
:100C400041F49A81963350F4953319F43C8534FF7E
:100C500005C0B60190E00E94AA0A3ECF81E3F9CF19
:100C60008A81813319F09C859F7E9C87B60190E034
:100C70000E94AA0AFF20A9F0B6018EE290E00E942D
:100C8000AA0AF394F394E2E001E00E0FE80DF92DC7
:100C9000F11D8081B60190E00E94AA0AE02F0F1199
:100CA000F3CF85E690E014FF02C085E490E0B60142
:100CB0000E94AA0AB7FC06C0A114B104C1F4EC85D5
:100CC000E4FF15C0B194A194B1088DE2B60190E0A3
:100CD0000E94AA0A80E32AE0A216B10454F4B601E5
:100CE00090E00E94AA0AB601C501C096B4CF8BE27B
:100CF000EDCF8F5FFAE0AF1AB108EDCF8336C9F0C0
:100D0000833771F1833509F05BC03501F2E06F0E76
:100D1000711CF501A080B1806F2D70E006FD02C04E
:100D20006FEF7FEFC5010E94580A9D878C8700688E
:100D30000DC0350132E0630E711CF501808189839D
:100D400021E030E03D872C8754010F7703FD06C07A
:100D50002C853D855216130609F0A8F4E52C2BC00E
:100D6000350132E0630E711CF501A080B1806F2D5A
:100D700070E006FD02C06FEF7FEFC5010E94630ABD
:100D80009D878C87E2CFB60180E290E00E94AA0A9C
:100D90005A94DECFF50107FD859107FF81915F0130
:100DA000B60190E00E94AA0AE110EA948C859D8524
:100DB00001979D878C87EC85FD85EF2B59F78CCEAD
:100DC000843619F0893609F074C0350107FF66C012
:100DD000F4E06F0E711CF501608171818281938155
:100DE000102F1F7697FF08C090958095709561959C
:100DF0007F4F8F4F9F4F10682AE030E0A4010E9480
:100E0000DA0AA82EA818BA2C012F16FF0AC00E7FE6
:100E1000AF1438F414FF04C012FD02C0012F0E7E7F
:100E2000BF2C04FF8EC0FE01EA0DF11D80818033CE
:100E300009F080C0097EF02FF870EF2E03FD90C0FE
:100E400000FF8AC0FA2CB51410F4F50CFB1804FF4F
:100E50008DC0B60180E390E00E94AA0A02FF09C09B
:100E600088E790E001FF02C088E590E0B6010E94AB
:100E7000AA0AAF1408F486C0AA940A2D10E00F5FE6
:100E80001F4F080D191DF80182918F01B60190E0E6
:100E90000E94AA0A80169106B1F71ECEF2E06F0EEC
:100EA000711CF50160817181072E000C880B990B74
:100EB00097CF102F8537A9F41F7E2AE030E0350147
:100EC00017FF2FC0F4E06F0E711CF5016081718176
:100ED00082819381A4010E94DA0AA82EA8181F77A4
:100EE00092CF197F8F36D1F048F4883591F0F60112
:100EF000868197812F96E2E10C944309803739F07F
:100F00008837A9F714FD146020E130E0D8CF1061D4
:100F1000F9CF04FD166020E132E0D1CF28E030E0C7
:100F2000CECFF2E06F0E711CF5016081718190E00F
:100F300080E0D0CF02FD02C0B3947DCFB394B394D0
:100F40007ACF802F867809F476CFF6CFB60180E28B
:100F500090E00E94AA0AB394B514C0F3E12C77CFB5
:100F6000E52CEB18B51408F472CFF8CF802F8678F3
:100F700009F47FCF8BE201FF80E207FD8DE2B6012D
:100F800090E075CFB60180E390E00E94AA0AFA943F
:100F900070CF8FEF9FEFAECF24E0E12C251508F046
:100FA00063CD84E053CD0E94E7070C94C8080E94EB
:100FB000C10858F00E94BA0840F029F45F3F29F0B8
:100FC0000C94B10851110C94FC080C94B7080E94C1
:100FD000D90868F39923B1F3552391F3951B550B69
:100FE000BB27AA2762177307840738F09F5F5F4FFC
:100FF000220F331F441FAA1FA9F335D00E2E3AF03B
:10100000E0E832D091505040E695001CCAF72BD052
:10101000FE2F29D0660F771F881FBB1F26173707A3
:101020004807AB07B0E809F0BB0B802DBF01FF27D5
:1010300093585F4F3AF09E3F510578F00C94B108F9
:101040000C94FC085F3FE4F3983ED4F386957795C3
:101050006795B795F7959F5FC9F7880F911D96958E
:10106000879597F90895E1E0660F771F881FBB1FEA
:10107000621773078407BA0720F0621B730B840B97
:10108000BA0BEE1F88F7E09508950E94E10888F0FA
:101090009F5798F0B92F9927B751B0F0E1F0660F3C
:1010A000771F881F991F1AF0BA95C9F714C0B1307D
:1010B00091F00E94FB08B1E008950C94FB08672FA3
:1010C000782F8827B85F39F0B93FCCF386957795AC
:1010D0006795B395D9F73EF4909580957095619595
:1010E0007F4F8F4F9F4F0895E89409C097FB3EF4C0
:1010F00090958095709561957F4F8F4F9F4F992365
:10110000A9F0F92F96E9BB279395F69587957795E2
:101110006795B795F111F8CFFAF4BB0F11F460FFA2
:101120001BC06F5F7F4F8F4F9F4F16C0882311F0FA
:1011300096E911C0772321F09EE8872F762F05C00E
:10114000662371F096E8862F70E060E02AF09A95A9
:10115000660F771F881FDAF7880F9695879597F99E
:10116000089597F99F6780E870E060E008959FEF29
:1011700080EC089500240A9416161706180609062E
:10118000089500240A9412161306140605060895FD
:10119000092E0394000C11F4882352F0BB0F40F485
:1011A000BF2B11F460FF04C06F5F7F4F8F4F9F4FC5
:1011B000089557FD9058440F551F59F05F3F71F047
:1011C0004795880F97FB991F61F09F3F79F08795AE
:1011D0000895121613061406551FF2CF4695F1DF37
:1011E00008C0161617061806991FF1CF86957105C7
:1011F000610508940895E894BB2766277727CB01FB
:1012000097F90895052E97FB1EF400940E94190982
:1012100057FD07D00E945E0907FC03D04EF40C94E2
:10122000190950954095309521953F4F4F4F5F4F8D
:10123000089590958095709561957F4F8F4F9F4F42
:101240000895EE0FFF1F0590F491E02D09942F9261
:101250003F924F925F926F927F928F929F92AF9246
:10126000BF92CF92DF92EF92FF920F931F93CF9393
:10127000DF93CDB7DEB7CA1BDB0B0FB6F894DEBF2A
:101280000FBECDBF09942A88398848885F846E8450
:101290007D848C849B84AA84B984C884DF80EE809A
:1012A000FD800C811B81AA81B981CE0FD11D0FB6A3
:1012B000F894DEBF0FBECDBFED010895A1E21A2E56
:1012C000AA1BBB1BFD010DC0AA1FBB1FEE1FFF1FEA
:1012D000A217B307E407F50720F0A21BB30BE40B3A
:1012E000F50B661F771F881F991F1A9469F7609581
:1012F0007095809590959B01AC01BD01CF0108953B
:10130000283008F027E03327DA01990F311D87FDD7
:10131000916000966105710539F432602E5F3D934E
:1013200030E32A95E1F708959F3F30F0803871054A
:10133000610509F03C5F3C5F3D93913008F08068A7
:10134000911DDF93CF931F930F93FF92EF92192F6D
:10135000987F9695E92F96959695E90FFF27E25489
:10136000FF4F99273327EE24FF24A701E7010590BB
:101370000894079428F4360FE71EF81E491F511DE4
:10138000660F771F881F991F0694A1F70590079491
:1013900028F4E70EF81E491F561FC11D770F881F3E
:1013A000991F661F0694A1F70590079428F4F80E7C
:1013B000491F561FC71FD11D880F991F661F771F12
:1013C0000694A1F70590079420F4490F561FC71FF4
:1013D000D81F990F661F771F881F0694A9F784915D
:1013E0001095177041F0D695C79557954795F79486
:1013F000E7941A95C1F7E4E6F0E06894159015912A
:1014000035916591959105907FE27395E118F10A08
:10141000430B560BC90BD009C0F7E10CF11E431F5B
:10142000561FC91FD01D7EF4703311F48A95E6CF84
:10143000E894015030F0080F0AF40027021708F46E
:10144000202F2395022F7A3328F079E37D932A9574
:10145000E9F710C07D932A9589F6069497956795CC
:10146000379517951794E118F10A430B560BC90BE2
:10147000D00998F023957E9173957A3308F070E344
:101480007C932013B8F77E9170617D9330F0839543
:1014900071E37D9370E32A95E1F71124EF90FF90BB
:1014A0000F911F91CF91DF91992787FD9095089516
:1014B000FC010590615070400110D8F7809590951F
:1014C0008E0F9F1F0895FC01615070400190011024
:1014D000D8F7809590958E0F9F1F0895253231057E
:1014E00020F4223010F00C94790AFA011082CA011B
:1014F0000895BB272A3051F4992342F4BDE2909518
:101500008095709561957F4F8F4F9F4F0C94890AFE
:10151000BB27FA01A62F6217710581059105330BD0
:1015200030FB66F0AA27660F771F881F991FAA1F36
:10153000A21710F0A21B63953850A9F7A05DAA333B
:1015400008F0A95DA19336F7B111B1931082CA01D9
:101550000C94380B0F931F93CF93DF93182F092F01
:10156000EB018B8181FD09C01FEF0FEF812F902FC1
:10157000DF91CF911F910F91089582FF14C02E81AA
:101580003F818C819D81281739073CF4E881F981DE
:10159000CF0101969983888310838E819F81019664
:1015A0009F838E83E3CFE885F985812F0995892B69
:1015B000A1F3DACFFA01AA27283051F1203181F1C5
:1015C000E8946F936E7F6E5F7F4F8F4F9F4FAF4F4B
:1015D000B1E03ED0B4E03CD0670F781F891F9A1F5E
:1015E000A11D680F791F8A1F911DA11D6A0F711D12
:1015F000811D911DA11D20D009F468943F912AE01E
:10160000269F11243019305D3193DEF6CF01089505
:10161000462F4770405D4193B3E00FD0C9F7F6CF36
:10162000462F4F70405D4A3318F0495D31FD4052FE
:10163000419302D0A9F7EACFB4E0A6959795879594
:1016400077956795BA95C9F7009761057105089573
:101650009B01AC010A2E069457954795379527951F
:10166000BA95C9F7620F731F841F951FA01D0895B7
:10167000DC01FC01672F71917723E1F7329704C0F9
:101680007C916D9370836291AE17BF07C8F3089584
:1016900010E0C0EBD0E004C0FE010E9421092196B9
:0A16A000C13BD107C9F7F894FFCF52
:1016AA0002020203030303ED00F200F700FC00F755
:1016BA0000ED00F20000000001010101ED00F2005E
:1016CA00F700FC00F700ED00F20006060607070720
:1016DA0007EC00F100F600FB00F600EC00F1000454
:1016EA00040405050505EC00F100F600FB00F60010
:1016FA00EC00F10002020203030303EC00F100F61E
:10170A0000FB00F600EC00F10000000001010101FD
:10171A00EC00F100F600FB00F600EC00F1003F06D9
:10172A005B4F666D7D077F6F5374617274207665B7
:10173A0072626F73652073747265616D696E67009A
:00000001FF
