:100000000C948E000C9481060C945A060C943306C2
:100010000C94B6000C94B6000C94B6000C94B60088
:100020000C94B6000C94B6000C94B6000C94B60078
:100030000C94B6000C94B6000C94B6000C94B60068
:100040000C94B6000C94B6000C94E9050C94B60020
:100050000C94B6000C94B6000C94B6000C94B60048
:100060000C94B6000C94B6000C94A8060C94B60040
:100070000C94B7050C9491050C94B6000000000296
:100080000300000000000000050409080000000053
:10009000000000000000000000000000496E6974CC
:1000A00069616C697A656420726174696F6E20772A
:1000B00069746820000D0A53797374656D20726548
:1000C0007365740000002200250028002B0000004A
:1000D0002100240027002A0002020202020202027A
:1000E00004040404040404040303030303030303D8
:1000F00001010101010101010102040810204080F9
:1001000001020408102040800102040810204080F1
:100110000102040810204080D307880911241FBE63
:10012000CFEFD0E1DEBFCDBF22E0AAE4B1E001C055
:100130001D92A23CB207E1F711E0A0E0B1E0E0EDD2
:10014000F3E102C005900D92AA34B107D9F710E08F
:10015000CDE8D0E004C02197FE010E94D509CC383B
:10016000D107C9F70E9458080C94DB090C940000D1
:100170000895089580918A0290918B02891B990BB2
:10018000089590E0FC01E850FF4F249188529F4F62
:10019000FC018491882399F090E0880F991FFC015D
:1001A000E253FF4FA591B491FC01EC53FF4F8591B1
:1001B00094918FB7F894EC91E22BEC938FBF089554
:1001C000AF92BF92CF92DF92EF92FF920F931F9365
:1001D000CF93DF936C017B018B01040F151FEB01A3
:1001E0005E01AE18BF08C017D10759F06991D6015A
:1001F000ED91FC910190F081E02DC6010995892BCC
:1002000079F7C501DF91CF911F910F91FF90EF908A
:10021000DF90CF90BF90AF900895FC01538D448D37
:10022000252F30E0842F90E0821B930B541710F0A1
:10023000CF96089501970895FC01918D828D9817AE
:1002400061F0A28DAE0FBF2FB11D5D968C91928D86
:100250009F5F9F73928F90E008958FEF9FEF0895B7
:10026000FC01918D828D981731F0828DE80FF11D80
:10027000858D90E008958FEF9FEF0895FC01918D9B
:10028000228D892F90E0805C9F4F821B91098F7394
:100290009927089584EE91E00E943E0121E0892B88
:1002A00009F420E0822F0895FC01A48DA80FB92F36
:1002B000B11DA35ABF4F2C91848D90E001968F738E
:1002C0009927848FA689B7892C93A089B1898C91AD
:1002D000837080648C93938D848D981306C00288FC
:1002E000F389E02D80818F7D80830895EF92FF92C6
:1002F0000F931F93CF93DF93EC0181E0888F9B8D49
:100300008C8D98131AC0E889F989808185FF15C002
:100310009FB7F894EE89FF896083E889F989808125
:100320008370806480839FBF81E090E0DF91CF91F4
:100330001F910F91FF90EF900895F62E0B8D10E016
:100340000F5F1F4F0F731127E02E8C8D8E110CC085
:100350000FB607FCFACFE889F989808185FFF5CFD0
:10036000CE010E945401F1CFEB8DEC0FFD2FF11D5A
:10037000E35AFF4FF0829FB7F8940B8FEA89FB890D
:1003800080818062CFCF682F84EE91E00C9476015B
:100390000F931F93CF93DF938C01D0E0C0E0F8015F
:1003A000EC0FFD1F6491662341F084EE91E00E9402
:1003B0007601892B11F02196F2CFCE01DF91CF91FA
:1003C0001F910F910895CF93DF93EC01888D8823BF
:1003D000B9F0AA89BB89E889F9898C9185FD03C0A8
:1003E000808186FD0DC00FB607FCF7CF8C9185FF8D
:1003F000F2CF808185FFEDCFCE010E945401E9CF7D
:10040000DF91CF91089580E090E0892B49F080E062
:1004100090E0892B29F00E94000081110E940000C9
:1004200080E090E0892B29F00E944A0181110C9410
:100430000000089590E0FC01E458FF4F2491FC0176
:10044000E850FF4F3491FC01E852FF4FE491EE2356
:10045000C9F0222339F0243001F1A8F4223069F1E7
:10046000233079F1F0E0EE0FFF1FEC53FF4FA59121
:10047000B4918FB7F894EC91611126C030953E236A
:100480003C938FBF0895283071F0293091F02530CA
:1004900049F7809180008F7D03C0809180008F7725
:1004A00080938000DFCF8091B0008F778093B00081
:1004B000D9CF8091B0008F7DF9CF84B58F7784BD7F
:1004C000D1CF84B58F7DFBCF3E2BDACF3FB7F894E9
:1004D0008091980190919901A0919A01B0919B010E
:1004E00026B5A89B05C02F3F19F00196A11DB11D8F
:1004F0003FBFBA2FA92F982F8827BC01CD01620FCB
:10050000711D811D911D42E0660F771F881F991F85
:100510004A95D1F708958F929F92AF92BF92CF9252
:10052000DF92EF92FF924B015C010E9466026B0129
:100530007C010E9466026C197D098E099F09683E44
:10054000734081059105A8F321E0821A9108A10862
:10055000B10888EEC80E83E0D81EE11CF11C81149E
:100560009104A104B10429F7FF90EF90DF90CF90A0
:10057000BF90AF909F908F900895089585ED8093E0
:10058000BC008091BC0084FDFCCF109287020895CE
:1005900020917001260F3327331F21323105ECF4EF
:1005A00020918702FC0190E080E0243069F082E035
:1005B0000895A09170012191AC01405B5E4FA40FA2
:1005C000B52FB11D2C930196861798F38091700179
:1005D000680F6093700180E0089581E008950895A8
:1005E000E0918B0280918A02E81730F4F0E0E45643
:1005F000FE4F808190E008958FEF9FEF08959091D6
:100600008B0280918A022FEF3FEF981748F4E92F71
:10061000F0E0E456FE4F208130E09F5F90938B0224
:10062000C9010895CF92DF92EF92FF920F931F932B
:10063000CF93DF937C01CB018A012091E301222338
:1006400089F0EB016B01C40ED51ECC15DD0569F0F8
:100650006991D701ED91FC910190F081E02DC701E6
:100660000995F3CF642F0E94C802C801DF91CF9192
:100670001F910F91FF90EF90DF90CF900895CF934F
:10068000DF931F92CDB7DEB769832091E301222368
:10069000F9F020918802203258F021E030E0FC018E
:1006A0003383228390E080E00F90DF91CF91089513
:1006B00080918902E82FF0E0EE53FE4F99819083FC
:1006C0008F5F809389028093880281E090E0ECCF75
:1006D00061E0CE0101960E94C802F7CF90E080E071
:1006E0000895FC0101900020E9F73197AF01481B04
:1006F000590BBC0184EE91E00C94E0008F929F9224
:10070000AF92BF920F931F93CF93DF93CDB7DEB716
:10071000A1970FB6F894DEBF0FBECDBF19A242302D
:1007200008F44AE08E010F5D1F4F842E912CB12CEE
:10073000A12CA50194010E94B309E62FB901CA01B9
:10074000EA30F4F4E05DD801EE938D01232B242BE5
:10075000252B79F790E080E0109719F0CD010E94E9
:100760007103A1960FB6F894DEBF0FBECDBFDF9127
:10077000CF911F910F91BF90AF909F908F90089550
:10078000E95CE1CF682F70E090E080E04AE00C94F3
:100790007E03CF93DF93C82F8AE291E00E9471031A
:1007A0008C2F0E94C203D0E0FE01EE0FFF1FEE0F60
:1007B000FF1FE455FD4F80818823D1F082E391E053
:1007C0000E947103CC0FDD1FCC0FDD1FC855DD4F1C
:1007D0008A810E94C20388E690E00E94C3018B8157
:1007E0000E94C20386E491E0DF91CF910C947103E3
:1007F0008BE391E0E5CFCF92DF92EF92FF920F93E0
:100800001F93CF93DF9381E08093E30188E6809389
:10081000E201109289021092880260E08CE892E076
:100820000E943F03809188028132F0F59091870207
:100830009111FCCF92E09093870291E09093860211
:100840009FEF9093C10122EC31E03093C0012093DF
:10085000BF011092BE018093BD011092BC01809136
:10086000BC01806D8093BC0180918502813009F0CC
:10087000EFC0109285028091BC018093BB008091F3
:10088000BC0083FDF8CF85EC8093BC00809187028B
:100890008230E1F38091C1018F3F31F08091C1013D
:1008A000803211F08091C101109289021092880269
:1008B0001092E301809187028111FCCF81E0809347
:1008C0008702809386029FEF9093C1012CE931E06B
:1008D0003093C0012093BF011092BE0196E0909327
:1008E000BD018093BC018091BC01806D8093BC01EF
:1008F00080918502813009F0ADC01092850280910F
:10090000BC018093BB008091BC0083FDF8CF85ECD7
:100910008093BC00809187028130E1F38091BE0119
:10092000873008F099C08091BE0110928B028093AD
:100930008A02873008F452C08CE892E00E94FF02DD
:10094000982F92959F70DAE08F70C82F9D9FC00DF1
:1009500011248CE892E00E94FF02982F92959F70DC
:100960008F70F82E9D9FF00C11248CE892E00E946D
:10097000FF02982F92959F708F70E82E9D9FE00C3C
:1009800011248CE892E00E94FF028CE892E00E9421
:10099000FF02982F92959F708F70082F9D9F000DDA
:1009A00011248CE892E00E94FF02982F92959F708C
:1009B0008F70182F9D9F100D11248CE892E00E94DB
:1009C000FF02982F92959F708F709D9F800D11242C
:1009D000C82ED12C80E3C81A88EFD80A802F0E9435
:1009E000C2038FE290E00E94C301812F0E94C203E4
:1009F0008FE290E00E94C301B60190E080E04AE0FF
:100A00000E947E038CE290E00E94C3018E2D0E9422
:100A1000C20388E690E00E94C3018F2D0E94C203AA
:100A20008AE390E00E94C3018C2F0E94C20363E717
:100A300084EE91E00E94760186E491E0DF91CF910F
:100A40001F910F91FF90EF90DF90CF900C94710366
:100A500085EE1ACF85EE5CCF87E067CF0C949D09B9
:100A6000FF920F931F93CF93DF93EC01F62E088133
:100A70001981C8010E949D09F81621F06F2DC80147
:100A80000E94A509CE01DF91CF911F910F91FF9098
:100A90000895CF92DF92EF92FF920F931F93CF931F
:100AA000DF9300D0CDB7DEB7E82EF12C9701220FEF
:100AB000331F220F331FA90148555D4F6A01FA0108
:100AC0006281082F000F080F065F10E01A83098368
:100AD000CE0101960E943005F6016381C80101969E
:100AE0009A838983CE0101960E943005F701EE0FAB
:100AF000FF1FEE0FFF1FE455FD4F60810E5F1F4F7C
:100B00001A830983CE0101960E9430050F900F9041
:100B1000DF91CF911F910F91FF90EF90DF90CF90D9
:100B200008951F920F920FB60F9211242F933F93A7
:100B30004F935F936F937F938F939F93AF93BF93E5
:100B4000EF93FF9384EE91E00E945401FF91EF91A7
:100B5000BF91AF919F918F917F916F915F914F91D5
:100B60003F912F910F900FBE0F901F9018951F92DD
:100B70000F920FB60F9211242F938F939F93EF93A1
:100B8000FF93E091F401F091F5018081E091FA0189
:100B9000F091FB0182FD1BC090818091FD018F5F70
:100BA0008F732091FE01821741F0E091FD01F0E08A
:100BB000EC51FE4F958F8093FD01FF91EF919F9136
:100BC0008F912F910F900FBE0F901F9018958081DD
:100BD000F4CF1F920F920FB60F9211242F933F93D1
:100BE0008F939F93AF93BF938091940190919501C0
:100BF000A0919601B09197013091930123E0230FCA
:100C00002D3768F126E8230F0296A11DB11D209310
:100C100093018093940190939501A0939601B093D2
:100C200097018091980190919901A0919A01B091BA
:100C30009B010196A11DB11D80939801909399018C
:100C4000A0939A01B0939B01BF91AF919F918F9117
:100C50003F912F910F900FBE0F901F901895019606
:100C6000A11DB11DD4CF1F920F920FB60F92112468
:100C70002F933F934F935F936F937F938F939F93A4
:100C8000AF93BF93EF93FF93E0910401F0910501BF
:100C90000995FF91EF91BF91AF919F918F917F91B6
:100CA0006F915F914F913F912F910F900FBE0F90D9
:100CB0001F9018951F920F920FB60F9211242F9329
:100CC0003F934F935F936F937F938F939F93AF93D4
:100CD000BF93EF93FF93E0910201F0910301099517
:100CE000FF91EF91BF91AF919F918F917F916F9104
:100CF0005F914F913F912F910F900FBE0F901F90DA
:100D000018951F920F920FB60F9211242F933F93B5
:100D10004F935F936F937F938F939F93AF93BF9303
:100D2000EF93FF93E0910001F09101010995FF918C
:100D3000EF91BF91AF919F918F917F916F915F9153
:100D40004F913F912F910F900FBE0F901F901895CC
:100D50001F920F920FB60F9211242F933F934F9330
:100D60005F936F937F938F939F93AF93BF93EF9313
:100D7000FF938091B900887F803609F44AC0F0F56E
:100D8000883209F4A7C018F5803109F49BC0B8F483
:100D9000882309F405C1883009F494C0FF91EF91CC
:100DA000BF91AF919F918F917F916F915F914F9183
:100DB0003F912F910F900FBE0F901F901895883183
:100DC00009F488C0803251F78093C10114C0803487
:100DD00009F4A5C040F48033B9F38833F9F6809361
:100DE000C10185ECBCC0803509F489C0883509F49F
:100DF0009EC0883499F60E94BE02D0CF883909F48B
:100E000094C038F5883729F050F4883611F08037CF
:100E100029F683E0809387021092920157C08838A8
:100E200009F483C0803919F0803809F0B7CF809178
:100E30009201803208F079C0E091920181E08E0F3A
:100E4000809392018091BB00F0E0EE58FE4F8083CA
:100E50003DC0803B39F0E0F4803A09F485C0883A1F
:100E600009F09CCF84E08093870210927101109268
:100E70007001E0918302F0918402099580917001E4
:100E800081110FC081E0809370011092500109C060
:100E9000803C09F4A6CF883C09F4A3CF883B09F035
:100EA0007DCFE091710181E08E0F80937101F0E0C0
:100EB000E05BFE4F80818093BB0090917101809137
:100EC000700131C08091BC018093BB0085EC8093A0
:100ED000BC0064CF9091BE018091BD019817B8F518
:100EE0008091BF019091C001E091BE0121E02E0FE1
:100EF0002093BE01E80FF92FF11D8081E5CF2091ED
:100F0000BF013091C001E091BE0181E08E0F80935E
:100F1000BE018091BB00E20FF32FF11D8083909101
:100F2000BE018091BD01981788F285E8D0CF20914D
:100F3000BF013091C001E091BE0181E08E0F80932E
:100F4000BE018091BB00E20FF32FF11D80838091E1
:100F50008602811150CF81E08093850284EA8093DC
:100F6000BC00109287021ACF85EC8093BC001092CF
:100F7000870280919201803230F4E0919201F0E09A
:100F8000EE58FE4F10826091920170E0E091810274
:100F9000F091820282E791E0099510929201FECED3
:100FA0001092C10128CFE4EEF1E01382128288EEA4
:100FB00093E0A0E0B0E084839583A683B7832AE022
:100FC00031E0318320832DEC30E0358724872CEC11
:100FD00030E03787268728EC30E0318B208B29ECF6
:100FE00030E0338B228B2AEC30E0358B248B2EECD7
:100FF00030E0378B268B118E128E138E148EECE818
:10100000F2E01382128284839583A683B7838CE1F6
:1010100091E091838083E8EAF2E08FEF8083118290
:1010200010928B0210928A0210928902109288020A
:101030001092870281E0809386021092850261E01F
:1010400081E10E941A0261E080E10E941A02E9EB4C
:10105000F0E080818E7F808380818D7F808388E433
:101060008093B80085E48093BC0088EB90E0909377
:1010700084028093830289EB90E0909382028093B4
:101080008102E8E9F2E01682108617821486138640
:1010900016861586108211821282138282E090E0F9
:1010A000958384838CE00E94C1008DE00C94C10084
:1010B000789484B5836084BD85B5836085BD809157
:1010C0006E00816080936E0092E090938100809129
:1010D0008100816080938100809180008160809395
:1010E00080008091B10084608093B1008091B00055
:1010F00081608093B00087E880937A001092C100ED
:10110000E091F401F091F5019083E091F001F0910C
:10111000F1011082E091F201F091F30180E180830E
:101120001092FC01E091F801F091F90186E08083D2
:10113000E091F601F091F701808188698083E09168
:10114000F601F091F70180818F7D808364E670E085
:1011500080E090E00E948B0285EB90E00E94C80145
:1011600086E491E00E94710388EAE82E82E0F82E7E
:101170008701CBE0D0E0CE0101970E942E05F80157
:101180008283CE010E942E05F8018383CE01019651
:101190000E942E0591E0811101C090E0F801948336
:1011A00015820C5F1F4F2396C431D10521F7109291
:1011B000A90224EB32E080E0F70116861786108A38
:1011C000118A948191118F5FF4E0EF0EF11C2E15BE
:1011D0003F0591F7823008F099C08093A90290E012
:1011E00080E00E942E05C82FD0E0D093A002C093CB
:1011F0009F0281E090E00E942E0590E09093A20271
:101200008093A102CF3FD10561F483E090E09093F9
:10121000A00280939F0281E090E09093A2028093CD
:10122000A1028CE990E00E94C80160919F02709138
:10123000A00290E080E04AE00E947E0386E491E014
:101240000E94710364E670E080E090E00E948B02EF
:101250000E94FB0380E00E94C90381E00E94C90351
:1012600082E00E94C9038091AA028F3F09F04BC01F
:101270009091A802911102C08093A80288E0809307
:10128000AA021092AB0281E08093AC021092AD02F0
:1012900080E00E9449058091A802813019F48FEF07
:1012A0008093A8028CE08093AE021092AF0281E09E
:1012B0008093B0021092B1020E9449058091A80269
:1012C000823019F48FEF8093A80283E18093B202F9
:1012D0001092B30281E08093B4021092B50282E0D2
:1012E0000E94490564E670E080E090E00E948B0275
:1012F0000E94FB0380E00E94C90381E00E94C903B1
:1013000082E00E94C9030E940302FDCF82E065CF04
:10131000E8988DEB92E0909301018093000160E0EA
:101320008CE00E941A0262E370E080E090E00E948C
:101330008B0260E08DE00C941A02F999FECF92BD09
:1013400081BDF89A992780B50895262FF999FECF87
:101350001FBA92BD81BD20BD0FB6F894FA9AF99AD2
:101360000FBE01960895A1E21A2EAA1BBB1BFD0118
:101370000DC0AA1FBB1FEE1FFF1FA217B307E40774
:10138000F50720F0A21BB30BE40BF50B661F771FCC
:10139000881F991F1A9469F76095709580959095AC
:1013A0009B01AC01BD01CF010895EE0FFF1F059019
:1013B000F491E02D099410E0CDE8D0E004C0FE01E6
:1013C0000E94D5092196CE38D107C9F7F894FFCFEE
:1013D000BD0200000000000000007601E0000D01E9
:1013E000E3013E011C013001000000003F03120335
:1013F0006E03EF02BA00FF02F002416C61726D658C
:101400002000204163746976652C0020496E616379
:0A141000746976652C000D0A0000D7
:00000001FF
