:100000000C94E7000C94C2090C949B090C9474099D
:100010000C940F010C940F010C940F010C940F0120
:100020000C940F010C940F010C940F010C940F0110
:100030000C940F010C940F010C940F010C940F0100
:100040000C940F010C940F010C942A090C940F01CD
:100050000C94F8080C94D2080C940F010C940F0126
:100060000C940F010C940F010C94E9090C940F01EE
:100070000C94A0080C947A080C940F010000210045
:10008000240027002A0000002200250028002B0061
:1000900000002000230026002900020202020202C2
:1000A000020204040404040404040303030303031A
:1000B00003030101010101010101010204081020F3
:1000C0004080010204081020408001020408102032
:1000D000408001020408102040800000000203005C
:1000E00000000000000005040908000000000000F6
:1000F00000000000000000000000434D47533D2277
:1001000000534D533A20004C652073797374C3A893
:100110006D65206120726564C3A96D617272C3A9A7
:1001200020212025642F25642F25642C2025646838
:10013000253032643A25303264004350494E3D0048
:1001400041542B002B004154000A546865204D3562
:10015000393020646964206E6F7420726573706F2B
:100160006E6420746F20616E20224154222E205034
:100170006C6561736520636865636B207365726984
:10018000616C20636F6E6E656374696F6E2C207096
:100190006F77657220737570706C7920616E642062
:1001A0004F4E4F46462070696E2E004F4B0D0A0091
:1001B000496E697469616C697A65642072617469F9
:1001C0006F6E2077697468200000160B4F101124A1
:1001D0001FBECFEFD0E1DEBFCDBF23E0A8E7B1E087
:1001E00001C01D92AA3DB207E1F711E0A0E0B1E025
:1001F000E4E0FBE202C005900D92A837B107D9F701
:1002000010E0C6EED0E004C02197FE010E947D13ED
:10021000C53ED107C9F70E94650D0C9475150C9465
:100220000000089508958091BA029091BB02891B45
:10023000990B0895DC01ED91FC910190F081E02D86
:100240000994EF92FF920F931F93CF93DF938C014A
:100250007B01D0E0C0E0F701EC0FFD1F6491662345
:1002600061F0D801ED91FC910190F081E02DC80181
:100270000995892B11F02196EECFCE01DF91CF9118
:100280001F910F91FF90EF900895AF92BF92CF9280
:10029000DF92EF92FF920F931F93CF93DF936C0146
:1002A0007B018B01040F151FEB015E01AE18BF0827
:1002B000C017D10759F06991D601ED91FC910190D9
:1002C000F081E02DC6010995892B79F7C501DF91F1
:1002D000CF911F910F91FF90EF90DF90CF90BF9043
:1002E000AF900895FC01538D448D252F30E0842F6D
:1002F00090E0821B930B541710F0CF96089501974E
:100300000895FC01918D828D981761F0A28DAE0F3A
:10031000BF2FB11D5D968C91928D9F5F9F73928FC1
:1003200090E008958FEF9FEF0895FC01918D828DED
:10033000981731F0828DE80FF11D858D90E00895BA
:100340008FEF9FEF0895FC01918D228D892F90E012
:10035000805C9F4F821B91098F739927089588ECC9
:1003600092E00E94A30121E0892B09F420E0822F72
:10037000089584E192E00E94A30121E0892B09F411
:1003800020E0822F0895FC01A48DA80FB92FB11D84
:10039000A35ABF4F2C91848D90E001968F739927BB
:1003A000848FA689B7892C93A089B1898C91837099
:1003B00080648C93938D848D981306C00288F38992
:1003C000E02D80818F7D80830895EF92FF920F93BF
:1003D0001F93CF93DF93EC0181E0888F9B8D8C8DF1
:1003E00098131AC0E889F989808185FF15C09FB7E5
:1003F000F894EE89FF896083E889F98980818370A8
:10040000806480839FBF81E090E0DF91CF911F9156
:100410000F91FF90EF900895F62E0B8D10E00F5F77
:100420001F4F0F731127E02E8C8D8E110CC00FB64D
:1004300007FCFACFE889F989808185FFF5CFCE01E5
:100440000E94C301F1CFEB8DEC0FFD2FF11DE35A9C
:10045000FF4FF0829FB7F8940B8FEA89FB89808168
:100460008062CFCFCF93DF93EC01888D8823B9F0E2
:10047000AA89BB89E889F9898C9185FD03C08081AF
:1004800086FD0DC00FB607FCF7CF8C9185FFF2CF2C
:10049000808185FFEDCFCE010E94C301E9CFDF91BE
:1004A000CF91089580E090E0892B29F00E94B90156
:1004B00081110E94000080E090E0892B29F00E94C9
:1004C000AF0181110C9400000895843081F028F46C
:1004D0008230E9F08330F9F00895883071F0893086
:1004E00091F08530B9F4809180008F7D03C08091B8
:1004F00080008F778093800008958091B0008F777F
:100500008093B00008958091B0008F7DF9CF84B5BD
:100510008F7784BD089584B58F7DFBCFCF93DF9314
:10052000282F30E0F901E652FF4F8491F901E6549B
:10053000FF4FD491F901E656FF4FC491CC23A1F0AF
:1005400081110E946502EC2FF0E0EE0FFF1FE057D3
:10055000FF4FA591B491EC91ED2381E090E009F477
:1005600080E0DF91CF91089580E090E0FACF1F9373
:10057000CF93DF93282F30E0F901E652FF4F8491AB
:10058000F901E654FF4FD491F901E656FF4FC491AB
:10059000CC23A9F0162F81110E946502EC2FF0E008
:1005A000EE0FFF1FEA57FF4FA591B4918FB7F89454
:1005B000EC91111108C0D095DE23DC938FBFDF9141
:1005C000CF911F910895DE2BF8CFCF93DF9390E06A
:1005D000FC01E654FF4F249186569F4FFC01849105
:1005E0008823C9F090E0880F991FFC01E458FF4F61
:1005F000A591B491FC01EA57FF4FC591D4916111C7
:100600000DC09FB7F8948C91209582238C9388819C
:10061000282328839FBFDF91CF910895623051F442
:100620009FB7F8943C91822F809583238C93E88127
:100630002E2BEFCF8FB7F894EC912E2B2C938FBFEE
:10064000EACF3FB7F8948091C6019091C701A0917D
:10065000C801B091C90126B5A89B05C02F3F19F06C
:100660000196A11DB11D3FBFBA2FA92F982F882732
:10067000BC01CD01620F711D811D911D42E0660F0D
:10068000771F881F991F4A95D1F708958F929F92DF
:10069000AF92BF92CF92DF92EF92FF924B015C013B
:1006A0000E9421036B017C010E9421036C197D09CA
:1006B0008E099F09683E734081059105A8F321E0EA
:1006C000821A9108A108B10888EEC80E83E0D81EEE
:1006D000E11CF11C81149104A104B10429F7FF90DD
:1006E000EF90DF90CF90BF90AF909F908F90089544
:1006F0002FB7F8946091C2017091C3018091C40139
:100700009091C5012FBF0895089585ED8093BC0099
:100710008091BC0084FDFCCF1092B7020895209117
:100720009E01260F3327331F21323105ECF420912F
:10073000B702FC0190E080E0243069F082E0089587
:10074000A0919E012191AC0142585E4FA40FB52F9C
:10075000B11D2C930196861798F380919E01680F26
:1007600060939E0180E0089581E008950895E091EE
:10077000BB028091BA02E81730F4F0E0E453FE4F78
:10078000808190E008958FEF9FEF08959091BB02D4
:100790008091BA022FEF3FEF981748F4E92FF0E06D
:1007A000E453FE4F208130E09F5F9093BB02C9016C
:1007B0000895CF92DF92EF92FF920F931F93CF9302
:1007C000DF937C01CB018A0120911302222389F05F
:1007D000EB016B01C40ED51ECC15DD0569F06991E6
:1007E000D701ED91FC910190F081E02DC7010995B1
:1007F000F3CF642F0E948F03C801DF91CF911F9127
:100800000F91FF90EF90DF90CF900895CF93DF93FB
:100810001F92CDB7DEB76983209113022223F9F02E
:100820002091B802203258F021E030E0FC013383FF
:10083000228390E080E00F90DF91CF910895809126
:10084000B902E82FF0E0EE50FE4F998190838F5F60
:100850008093B9028093B80281E090E0ECCF61E030
:10086000CE0101960E948F03F7CF90E080E00895BB
:10087000E0916503F0916603309799F086818111CC
:1008800010C085859685019696878587258536854E
:10089000878190852817390720F060E08DE00C945F
:1008A000B7020895E0916503F0916603309799F0DF
:1008B0008681811110C083859485019694878387F2
:1008C00023853485878190852817390720F060E0DB
:1008D0008CE00C94B7020895DC01ED91FC9101903D
:1008E000F081E02D0994BF92CF92DF92EF92FF92B8
:1008F0000F931F93CF93DF9300D000D000D01F92AF
:10090000CDB7DEB781E08093130288E680931202B0
:100910001092B9021092B80260E08CEB92E00E9453
:1009200006048091B8028132F0F59091B7029111DE
:10093000FCCF92E09093B70291E09093B6029FEFC4
:100940009093F10122EF31E03093F0012093EF0119
:100950001092EE018093ED011092EC018091EC0178
:10096000806D8093EC018091B502813009F0CDC09B
:100970001092B5028091EC018093BB008091BC0085
:1009800083FDF8CF85EC8093BC008091B702823064
:10099000E1F38091F1018F3F31F08091F1018032DC
:1009A00011F08091F1011092B9021092B8021092E8
:1009B00013028091B7028111FCCF81E08093B702CE
:1009C0008093B6029FEF9093F1012CEC31E03093CD
:1009D000F0012093EF011092EE0196E09093ED016B
:1009E0008093EC018091EC01806D8093EC0180910B
:1009F000B502813009F08BC01092B5028091EC01F4
:100A00008093BB008091BC0083FDF8CF85EC809380
:100A1000BC008091B7028130E1F38091EE01873014
:100A200008F077C08091EE011092BB028093BA0269
:100A3000873008F450C08CEB92E00E94C603982FD8
:100A400092959F701AE08F70B82E919FB00C112470
:100A50008CEB92E00E94C603982F92959F708F7046
:100A6000C82E919FC00C11248CEB92E00E94C6030B
:100A7000982F92959F708F70D82E919FD00C112433
:100A80008CEB92E00E94C6038CEB92E00E94C603BE
:100A9000982F92959F708F70E82E919FE00C1124F3
:100AA0008CEB92E00E94C603982F92959F708F70F6
:100AB000F82E919FF00C11248CEB92E00E94C6035B
:100AC000982F92959F70082F0F70919F000D112401
:100AD00010E00053184F1F830E83702F2B2D3C2DD9
:100AE0004D2D5E2D6F2D8F8190E027960FB6F894D7
:100AF000DEBF0FBECDBFDF91CF911F910F91FF9051
:100B0000EF90DF90CF90BF90089585EE3CCF85EEBB
:100B10007ECF87E089CFFB0101900020E9F7319774
:100B2000AF01461B570BDC01ED91FC910280F38174
:100B3000E02D09948F929F92AF92BF920F931F93D3
:100B4000CF93DF93CDB7DEB7A1970FB6F894DEBF92
:100B50000FBECDBF19A2423008F44AE08E010F5DEE
:100B60001F4F842E912CB12CA12CA50194010E9421
:100B70005B13E62FB901CA01EA3004F5E05DD80144
:100B8000EE938D01232B242B252B79F790E080E029
:100B9000109729F0BD0188EC92E00E948B05A19688
:100BA0000FB6F894DEBF0FBECDBFDF91CF911F917E
:100BB0000F91BF90AF909F908F900895E95CDFCF29
:100BC000682F70E090E080E04AE00C949A0560E3C2
:100BD00071E00C948B050F931F93CF93DF938C01DF
:100BE000D0E0C0E06115710519F00E948B05EC01A1
:100BF000C8010E94E7058C0F9D1FDF91CF911F91C7
:100C00000F910895CF92DF92EF92FF920F931F936F
:100C1000CF93DF938C017B010E947803C0E0D0E08A
:100C20009B01AC012E0D3F1D411D511D69017A0133
:100C30000E9478036C157D058E059F0508F042C063
:100C4000D8011E968D919C91DC01ED91FC91008460
:100C5000F185E02D0995892B59F3F8018685978553
:100C6000DC01ED91FC910284F385E02D0995082EBD
:100C7000000C990BED2FF0E0E555FE4FE491E817DD
:100C8000190641F4DF5FD43031F490E080E011C008
:100C9000C0E0CECFD0E0EC2FF0E0E555FE4FE49180
:100CA000E8171906A9F7CF5FC63009F0C1CF81E078
:100CB00090E0DF91CF911F910F91FF90EF90DF9027
:100CC000CF90089582E090E0F4CFFC018081918183
:100CD000009711F00C941F1408950F931F93CF9356
:100CE000DF93EC0188819981009759F02A813B813B
:100CF0002617370730F081E0DF91CF911F910F91D8
:100D000008958B016F5F7F4F0E94A814009759F0E0
:100D1000998388831B830A832C813D81232B59F778
:100D2000FC011082E8CF80E0E7CFEF92FF920F93B3
:100D30001F93CF93DF93EC017B018A01BA010E94DC
:100D40006D0628813981811114C02115310519F0F2
:100D5000C9010E941F14198218821D821C821B82E5
:100D60001A82CE01DF91CF911F910F91FF90EF90EA
:100D700008951D830C83B701C9010E946E15F1CF40
:100D8000CF93DF93EC01FB018617970749F0608151
:100D900071816115710541F0448155810E9495066C
:100DA000CE01DF91CF91089588819981009711F04C
:100DB0000E941F14198218821D821C821B821A82B3
:100DC000EFCF7F928F929F92AF92BF92CF92DF929E
:100DD000EF92FF920F931F93CF93DF9300D000D039
:100DE00000D0CDB7DEB77C0168EE73E080E090E024
:100DF0000E94460380917F0390918003892B09F024
:100E00006EC066E471E080917B0390917C030E9448
:100E1000210180917B0390917C030E94E7050E9451
:100E2000780300E010E0712C4B015C0128EE820E8B
:100E300023E0921EA11CB11C84E4C82E81E0D82EB0
:100E40000E947803681579058A059B0508F047C05C
:100E500080917B0390917C03DC01ED91FC910084F7
:100E6000F185E02D0995892B59F380917B039091B1
:100E70007C03DC01ED91FC910284F385E02D099562
:100E8000282F082E000C330BF601949192171306AD
:100E900021F0112389F0113039F411E08A3381F601
:100EA00012E0CECF00E0CCCF10E08D3049F2E72D3C
:100EB000F0E080837394F4CFE02FF0E0E555FE4F2F
:100EC000E491E217130671F70F5F043009F0B8CF11
:100ED00082E090E09093800380937F0310C0809124
:100EE0007D0390917E03009751F069E471E00E94C8
:100EF000210180917D0390917E030E94E70568EEB9
:100F000073E080E090E00E9446031A8219821C82FE
:100F10001B821E821D82B701CE0101960E94C0066F
:100F200080917F0390918003039709F041C060E4B2
:100F300071E080917B0390917C030E9421016AE320
:100F400071E080917B0390917C030E94210162E219
:100F500080917B0390917C030E941A0180917B0316
:100F600090917C034D815E8169817A81DC01ED91F4
:100F7000FC910280F381E02D099562E280917B0370
:100F800090917C030E941A0180917B0390917C03D5
:100F90000E94E70568EE73E08DE693E00E9402068A
:100FA000892B31F484E090E09093800380937F0359
:100FB000CE0101960E94650668EE73E080E090E045
:100FC0000E94460380917B0390917C03DC01ED91AC
:100FD000FC910680F781E02D099587E090E09093E1
:100FE000800380937F0380E026960FB6F894DEBFDF
:100FF0000FBECDBFDF91CF911F910F91FF90EF906A
:10100000DF90CF90BF90AF909F908F907F9008958A
:10101000FC01118210821382128215821482FB015C
:1010200001900020E9F73197AF01461B570B0C9454
:101030009506FF920F931F93CF93DF93EC01F62E4B
:1010400008811981C8010E940E13F81621F06F2D36
:10105000C8010E941613CE01DF91CF911F910F910D
:10106000FF900895CF92DF92EF92FF920F931F931C
:10107000CF93DF9300D0CDB7DEB7E82EF12C9701E8
:10108000220F331F220F331FA90143555C4F6A0102
:10109000FA016281082F000F080F065F10E01A8323
:1010A0000983CE0101960E941908F6016381C801E7
:1010B00001969A838983CE0101960E941908F7014F
:1010C000EE0FFF1FEE0FFF1FEF54FC4F60810E5F0E
:1010D0001F4F1A830983CE0101960E9419080F90B1
:1010E0000F90DF91CF911F910F91FF90EF90DF90C4
:1010F000CF9008951F920F920FB60F9211242F9345
:101100003F934F935F936F937F938F939F93AF938F
:10111000BF93EF93FF9388EC92E00E94C301FF918D
:10112000EF91BF91AF919F918F917F916F915F915F
:101130004F913F912F910F900FBE0F901F901895D8
:101140001F920F920FB60F9211242F938F939F939C
:10115000EF93FF93E091D802F091D9028081E09162
:10116000DE02F091DF0282FD1BC090818091E102DE
:101170008F5F8F732091E202821741F0E091E102CC
:10118000F0E0E853FD4F958F8093E102FF91EF91DE
:101190009F918F912F910F900FBE0F901F901895D8
:1011A0008081F4CF1F920F920FB60F9211242F93CC
:1011B0003F934F935F936F937F938F939F93AF93DF
:1011C000BF93EF93FF9384E192E00E94C301FF91EC
:1011D000EF91BF91AF919F918F917F916F915F91AF
:1011E0004F913F912F910F900FBE0F901F90189528
:1011F0001F920F920FB60F9211242F938F939F93EC
:10120000EF93FF93E0912402F09125028081E09119
:101210002A02F0912B0282FD1BC0908180912D0249
:101220008F5F8F7320912E02821741F0E0912D0283
:10123000F0E0EC5EFD4F958F80932D02FF91EF91D2
:101240009F918F912F910F900FBE0F901F90189527
:101250008081F4CF1F920F920FB60F9211242F931B
:101260003F938F939F93AF93BF938091C2019091CF
:10127000C301A091C401B091C5013091C10123E027
:10128000230F2D3768F126E8230F0296A11DB11D0B
:101290002093C1018093C2019093C301A093C40124
:1012A000B093C5018091C6019091C701A091C8017A
:1012B000B091C9010196A11DB11D8093C601909303
:1012C000C701A093C801B093C901BF91AF919F918D
:1012D0008F913F912F910F900FBE0F901F901895F7
:1012E0000196A11DB11DD4CF1F920F920FB60F9280
:1012F00011242F933F934F935F936F937F938F931B
:101300009F93AF93BF93EF93FF93E0910401F0910C
:1013100005010995FF91EF91BF91AF919F918F9139
:101320007F916F915F914F913F912F910F900FBEE1
:101330000F901F9018951F920F920FB60F921124C5
:101340002F933F934F935F936F937F938F939F93CD
:10135000AF93BF93EF93FF93E0910201F0910301EC
:101360000995FF91EF91BF91AF919F918F917F91DF
:101370006F915F914F913F912F910F900FBE0F9002
:101380001F9018951F920F920FB60F9211242F9352
:101390003F934F935F936F937F938F939F93AF93FD
:1013A000BF93EF93FF93E0910001F0910101099544
:1013B000FF91EF91BF91AF919F918F917F916F912D
:1013C0005F914F913F912F910F900FBE0F901F9003
:1013D00018951F920F920FB60F9211242F933F93DF
:1013E0004F935F936F937F938F939F93AF93BF932D
:1013F000EF93FF938091B900887F803609F44AC04B
:10140000F0F5883209F4A7C018F5803109F49BC0C3
:10141000B8F4882309F405C1883009F494C0FF9119
:10142000EF91BF91AF919F918F917F916F915F915C
:101430004F913F912F910F900FBE0F901F901895D5
:10144000883109F488C0803251F78093F10114C0CB
:10145000803409F4A5C040F48033B9F38833F9F639
:101460008093F10185ECBCC0803509F489C08835D2
:1014700009F49EC0883499F60E948503D0CF88393C
:1014800009F494C038F5883729F050F4883611F003
:10149000803729F683E08093B7021092C00157C0CD
:1014A000883809F483C0803919F0803809F0B7CF43
:1014B0008091C001803208F079C0E091C00181E0E4
:1014C0008E0F8093C0018091BB00F0E0E056FE4F8C
:1014D00080833DC0803B39F0E0F4803A09F485C058
:1014E000883A09F09CCF84E08093B70210929F0164
:1014F00010929E01E091B302F091B402099580919F
:101500009E0181110FC081E080939E0110927E01A7
:1015100009C0803C09F4A6CF883C09F4A3CF883BDE
:1015200009F07DCFE0919F0181E08E0F80939F01B4
:10153000F0E0E258FE4F80818093BB0090919F01C4
:1015400080919E0131C08091EC018093BB0085ECBD
:101550008093BC0064CF9091EE018091ED019817CB
:10156000B8F58091EF019091F001E091EE0121E05A
:101570002E0F2093EE01E80FF92FF11D8081E5CFAA
:101580002091EF013091F001E091EE0181E08E0FAA
:101590008093EE018091BB00E20FF32FF11D808359
:1015A0009091EE018091ED01981788F285E8D0CFF7
:1015B0002091EF013091F001E091EE0181E08E0F7A
:1015C0008093EE018091BB00E20FF32FF11D808329
:1015D0008091B602811150CF81E08093B50284EAF8
:1015E0008093BC001092B7021ACF85EC8093BC00A8
:1015F0001092B7028091C001803230F4E091C001B6
:10160000F0E0E056FE4F10826091C00170E0E09182
:10161000B102F091B20280EA91E009951092C00106
:10162000FECE1092F10128CF0C940E13CF92DF92D0
:10163000EF92FF920F931F93CF93DF93CDB7DEB757
:1016400028970FB6F894DEBF0FBECDBF1092CB0225
:101650001092CA0288EE93E0A0E0B0E08093CC0242
:101660009093CD02A093CE02B093CF0220E131E05F
:101670003093C9022093C8024DEC50E05093D5023C
:101680004093D4024CEC50E05093D7024093D602E2
:1016900048EC50E05093D9024093D80249EC50E016
:1016A0005093DB024093DA024AEC50E05093DD02A3
:1016B0004093DC024EEC50E05093DF024093DE0298
:1016C0001092E1021092E2021092E3021092E40200
:1016D000109217021092160280931802909319022A
:1016E000A0931A02B0931B023093150220931402A8
:1016F00025EC30E0309321022093200224EC30E0EE
:10170000309323022093220220EC30E03093250214
:101710002093240221EC30E030932702209326020C
:1017200022EC30E0309329022093280226EC30E0AE
:1017300030932B0220932A0210922D0210922E0237
:1017400010922F02109230021092BF021092BE022D
:101750008093C0029093C102A093C202B093C302CF
:1017600082E291E09093BD028093BC021092CD037F
:101770001092CF031092CE031092D3031092D20393
:101780001092D5031092D4031092C7031092C8038D
:101790001092C9031092CA0381E090E09093CC03A9
:1017A0008093CB0361E08CE00E94E50261E08DE074
:1017B0000E94E50260E08CE00E94B70260E08DE0EC
:1017C0000E94B70287EC93E09093660380936503D1
:1017D00060E08BE00E94E50260E08AE00E94E502A2
:1017E00082E594E090930301809302018091690067
:1017F000837F886080936900E99A88E394E09093FE
:10180000010180930001809169008C7F8260809348
:101810006900E89A90E080E00E94140B90E09093B9
:10182000CF038093CE0381E090E00E94140B90E000
:101830009093D1038093D00360EB71E088EC92E049
:101840000E9421016091CE037091CF0390E080E06F
:101850004AE00E949A0588EC92E00E94E7058FEF2B
:101860008093AD031092AE031092BB021092BA02A5
:101870001092B9021092B8021092B70281E08093E0
:10188000B6021092B50261E081E10E94B70261E008
:1018900080E10E94B7028091B9008E7F8093B900E9
:1018A0008091B9008D7F8093B90088E48093B8005F
:1018B00085E48093BC0081E191E09093B402809331
:1018C000B30282E191E09093B2028093B1028DEA7B
:1018D000C82E83E0D82E76010BE010E0C8010197F6
:1018E0000E94140BF7018283C8010E94140BF701B8
:1018F0008383C80101960E94140B91E0811101C0FD
:1019000090E0F70194831582F4E0EF0EF11C0D5F77
:101910001F4F0431110511F71092AE0329EB33E08C
:1019200080E0F60116861786108A118A948191113B
:101930008F5FF4E0CF0ED11C2C153D0591F782305E
:1019400008F065C08093AE0363E371E08DE693E039
:101950000E9408086EE371E083E793E00E940808A4
:1019600010927A03109279031092800310927F03F1
:1019700010928203109281031092830310928403C9
:1019800010928503109286031092870310928803A9
:1019900010928A03109289031092AB031092AC0349
:1019A00010927C0310927B0362E371E0CE010196FA
:1019B0000E94080888E290E00E94140B09E210E0FF
:1019C000882339F1093294E0190719F18F831886B9
:1019D000ED80FE80EFEFEE1AFE0AB701CE01019610
:1019E0000E946D06882369F029813A818D819E814C
:1019F000BE01695F7F4F820F931F0E946E15FE82AA
:101A0000ED82C8010E94140B0F5F1F4FD9CF82E0F7
:101A100099CFBE016F5F7F4F8DE693E00E94C006B5
:101A200050E040E062E371E0CE0101960E9495062D
:101A30008CE390E00E94140B0DE310E0882329F161
:101A40000D33F4E01F0709F18F831886ED80FE80C7
:101A50008FEFE81AF80AB701CE0101960E946D06D1
:101A6000882369F029813A818D819E81BE01695F59
:101A70007F4F820F931F0E946E15FE82ED82C80178
:101A80000E94140B0F5F1F4FD9CFBE016F5F7F4FB6
:101A900083E793E00E94C006CE0101960E9465068E
:101AA00062E371E087E693E00E94080828960FB68B
:101AB000F894DEBF0FBECDBFDF91CF911F910F9184
:101AC000FF90EF90DF90CF900895CF93DF93CDB745
:101AD000DEB72E970FB6F894DEBF0FBECDBF789459
:101AE00084B5836084BD85B5836085BD80916E00BB
:101AF000816080936E0012E01093810080918100DC
:101B0000816080938100809180008160809380005B
:101B10008091B10084608093B1008091B0008160B9
:101B20008093B00087E880937A001092C100E09122
:101B3000D802F091D9021083E091D402F091D5023D
:101B40001082E091D602F091D70230E1F32EF082BC
:101B50001092E002E091DC02F091DD0206E00083E9
:101B6000E091DA02F091DB02808188698083E09164
:101B7000DA02F091DB0280818F7D808364E670E081
:101B800080E090E00E94460361E08EE00E94E50262
:101B900060E08EE00E94B70284E192E090937C03C3
:101BA00080937B03E0912402F09125021083E09161
:101BB0002002F09121021082E0912202F091230292
:101BC000F08210922C02E0912802F0912902008309
:101BD000E0912602F0912702808188698083E0915C
:101BE0002602F091270280818F7D808364E670E079
:101BF00080E090E00E94460388EC92E090937E03A0
:101C000080937D036EE371E0CE0101960E94080887
:101C1000CE0101960E94E106CE0101960E94650662
:101C20000E94730429833A834B835C836D837E8394
:101C30008F83852F0E94E0056FE270E088EC92E0D0
:101C40000E946C048D810E94E0056FE270E088ECD8
:101C500092E00E946C046E817F8190E080E04AE017
:101C60000E949A056CE270E088EC92E00E946C049D
:101C70008B810E94E00568E670E088EC92E00E94AB
:101C80006C048A810E94E0056AE370E088EC92E0CF
:101C90000E946C0489810E94E00563E788EC92E071
:101CA0000E941A0188EC92E00E94E7050DEA13E019
:101CB000F12C63E471E088EC92E00E948B058F2D9B
:101CC0000E94E005D80114968C916BE471E08111BB
:101CD00002C064E571E088EC92E00E948B05F80197
:101CE00082810E94E00568E670E088EC92E00E9444
:101CF0006C04D80113968C910E94E00588EC92E068
:101D00000E94E705F3940C5F1F4FB3E0FB12D1CFA5
:101D10000E947304288739874A875B876C877D8791
:101D20008E8784E291E00E9483138C0187E0FE019C
:101D30003896DE01119601900D928A95E1F7FB80AD
:101D4000EC807D808E809F805801EEE0AE0EB11C4D
:101D500020E5C22ED12CC6010E94140BD5018D9313
:101D60005D01BFEFCB1ADB0AE5E5CE16D10499F78A
:101D70008DE691E0889E9001899E300D989E300DF1
:101D800011242E0D311DFFE17F9E200D311D1124E8
:101D900088E1829FA001839F500D11248F2D90E038
:101DA000885F9C4A840F951FD80154969C938E930C
:101DB000539760E088E10E94E50262E082E10E94C0
:101DC000E50262E083E10E94E50261E08BE10E94AE
:101DD000E50261E08CE10E94E50261E08DE10E9494
:101DE000E50261E08EE10E94E50283E090E0F80107
:101DF0009183808361E08BE10E94B702D801139642
:101E00001C921E92129760E08CE10E94B702F801CA
:101E10001582148260E08DE10E94B702D801179606
:101E20001C921E92169760E08EE10E94B7020E94FB
:101E30007803F8016087718782879387148682E12F
:101E40000E948E027C0183E10E948E02EE0CFF1C38
:101E5000E82AD8011D96EC921D975E961C926FE5BC
:101E600071E088EC92E00E94EB05F801E25EFE4F23
:101E70008DE693E09183808332968DEA93E091839F
:101E80008083329687EC93E091838083C8014F96DC
:101E900090937A03809379036CE671E088EC92E08A
:101EA0000E94EB051093CB010093CA018091AD0312
:101EB000811103C08FEF8093AD0384E18093AF0362
:101EC0008BE08093B00381E08093B1031092B20362
:101ED00080E00E9432088091AD03813019F48FEFC9
:101EE0008093AD0384E18093B3038093B40381E0D6
:101EF0008093B5031092B6030E9432088091AD031F
:101F0000823019F48FEF8093AD0388E08093B7039C
:101F100087E38093B80381E08093B9031092BA03FA
:101F200082E00E9432080091CA011091CB010E9408
:101F30007304288739874A875B876C877D878E87FC
:101F40001F922F9389851F928F938A851F928F935B
:101F50008E858F938D858F938C851F928F938B8524
:101F60001F928F9387E091E09F938F93C8014F96C4
:101F70009F938F930E946D10F801E25EFE4F0081E7
:101F8000118161E071E0F801808991890E9421014D
:101F9000D8011C966D917C911D9750968D919C91C6
:101FA0000E94EB050FB6F894DEBF0FBECDBFD8017F
:101FB00052968D919C9153970A9709F06DC060E4F9
:101FC00071E01E968D919C910E9421016AEF70E054
:101FD000F801868597850E942101D8011E968D9172
:101FE0009C911F9714964D915C9115976D917C91E2
:101FF000DC01ED91FC910280F381E02D0995F8015F
:10200000E684F78462E2C7010E941A01C7010E94B8
:10201000E7050E9478036B017C01F8EECF0EF3E038
:10202000DF1EE11CF11C0E9478036C157D058E05F6
:102030009F0590F5D8011E968D919C91DC01ED9144
:10204000FC910084F185E02D0995892B61F3F8015D
:1020500086859785DC01ED91FC910284F385E02D66
:102060000995CE9701F7D8011E968D919C911F97E7
:102070001C966D917C916115710511F00E948B0584
:102080006AE170E0F801868597850E946C0460E142
:1020900077E2C8010E9402060E945202FDCF87E645
:1020A00093E00E94650683E793E00E9465068DE653
:1020B00093E00E946506E998E0E0F1E084E893E0AF
:1020C00093838283E8989183808360E08CE00E9410
:1020D000B70260E08DE00C94B702AEE0B0E0E3E759
:1020E000F0E10C9432130D891E898EE08C831A83E3
:1020F00009838FEF9FE79E838D83AE01475E5F4F1D
:102100006F89788DCE0101960E9490102F813885BD
:10211000020F131FF80110822E96E4E00C944E1368
:10212000ABE0B0E0E6E9F0E10C9424137C013B0164
:102130008A01FC0117821682838181FFC8C1CE010A
:1021400001965C01F7019381F30193FD859193FF63
:1021500081913F01882309F453C1853239F493FDFD
:10216000859193FF81913F01853229F4B70190E079
:102170000E948012E7CF912C212C312CFFE1F31526
:1021800038F08B3211F190F4803209F1833229F169
:1021900037FC3CC020ED280F2A3050F536FE20C019
:1021A0008AE0989E200D1124922E06C08D3291F067
:1021B000803371F7689430F8F30193FD859193FFB4
:1021C00081913F018111DACF21C0689431F8689480
:1021D00032F8F2CF689433F8EFCF689434F8ECCF4C
:1021E000EAE02E9E200D1124222E689435F8E4CFCB
:1021F0008E3229F436FC04C1689436F8DDCF8C3673
:1022000019F4689437F8D8CF8836B1F2982F9F7DAB
:1022100095549330E0F08336A1F18337C1F18335D3
:1022200009F063C02801F2E04F0E511CF801C08094
:10223000D180692D70E036FC02C06FEF7FEFC601E0
:102240000E946A124C01689437F882010AC00C5F40
:102250001F4FFFE3F98388248394912C6501E89450
:1022600037F833FE2DC0522C8114910471F555209E
:1022700009F468CFB70180E290E00E9480125A947E
:10228000F6CFF801808189830E5F1F4FE4CF2801CC
:10229000F2E04F0E511CF801C080D180692D70E032
:1022A00036FC02C06FEF7FEFC6010E9475124C0131
:1022B0008201D5CFB70180E290E00E9480122A947B
:1022C0002814190409F0B0F7CECFF60137FC859138
:1022D00037FE81916F01B70190E00E94801251108A
:1022E0005A94F1E08F1A9108BFCF843619F08936DD
:1022F00009F077C0F80137FE6BC06081718182817F
:1023000093810C5F1F4FF32DFF763F2E97FF09C07F
:1023100090958095709561957F4F8F4F9F4F6894F2
:1023200037F82AE030E0A5010E94B012C82ECA1882
:102330008C2C432C36FE0CC0E89440F8C91440F4B1
:1023400034FE05C032FC03C0F32DFE7E4F2E892CD7
:1023500044FE95C0FE01EC0DF11D8081803309F033
:1023600087C0242D297E422E842D8870582E43FC50
:1023700095C040FE8FC09C2C821418F42C0C922C1B
:10238000981844FE91C0B70180E390E00E9480124B
:1023900042FE09C088E790E041FE02C088E590E077
:1023A000B7010E948012C91408F48AC0CA94D12CC3
:1023B0009FEFC91AD90ACA0CDB1CF60182916F0182
:1023C000B70190E00E948012AC14BD04B1F74FCF6A
:1023D00060817181072E000C880B990B0E5F1F4FD7
:1023E00092CFD32CE894D4F82AE030E0853739F145
:1023F000232D297FD22E8F3601F148F48835A9F09C
:10240000F701868197812B96E2E10C944013803787
:1024100049F08837A9F7D4FE02C06894D2F820E1C9
:1024200030E00DC06894D4F8F6CF34FE03C0822F9C
:102430008660D82E20E132E002C028E030E0F801CA
:10244000D7FE0FC060817181828193810C5F1F4F25
:10245000A5010E94B012C82ECA183D2CE89437F886
:1024600067CF6081718190E080E00E5F1F4FF0CFF9
:1024700042FC02C0839478CF8394839475CF842DDB
:10248000867809F471CFF6CFB70180E290E00E9420
:10249000801283948214C0F3512C73CF522C58189D
:1024A000821408F46ECFF8CF842D867809F47BCFA0
:1024B0008BE241FE80E247FC8DE2B70190E071CFF4
:1024C000B70180E390E00E9480129A946CCF8FEF66
:1024D0009FEF99CFFC010590615070400110D8F733
:1024E000809590958E0F9F1F0895FC01615070405C
:1024F00001900110D8F7809590958E0F9F1F089539
:102500000F931F93CF93DF93182F092FEB018B812C
:1025100081FD09C01FEF0FEF812F902FDF91CF9129
:102520001F910F91089582FF14C02E813F818C81ED
:102530009D81281739073CF4E881F981CF01019684
:102540009983888310838E819F8101969F838E83D8
:10255000E3CFE885F985812F0995892BA1F3DACF9F
:10256000FA01AA27283051F1203181F1E8946F93C4
:102570006E7F6E5F7F4F8F4F9F4FAF4FB1E03ED06A
:10258000B4E03CD0670F781F891F9A1FA11D680F08
:10259000791F8A1F911DA11D6A0F711D811D911D3B
:1025A000A11D20D009F468943F912AE0269F1124B0
:1025B0003019305D3193DEF6CF010895462F477014
:1025C000405D4193B3E00FD0C9F7F6CF462F4F706F
:1025D000405D4A3318F0495D31FD4052419302D0CD
:1025E000A9F7EACFB4E0A695979587957795679573
:1025F000BA95C9F700976105710508959B01AC0173
:102600000A2E06945795479537952795BA95C9F799
:10261000620F731F841F951FA01D0895F999FECFA7
:1026200092BD81BDF89A992780B50895262FF99912
:10263000FECF1FBA92BD81BD20BD0FB6F894FA9AA5
:10264000F99A0FBE019608952F923F924F925F9292
:102650006F927F928F929F92AF92BF92CF92DF92B2
:10266000EF92FF920F931F93CF93DF93CDB7DEB717
:10267000CA1BDB0B0FB6F894DEBF0FBECDBF0994AB
:102680002A88398848885F846E847D848C849B8402
:10269000AA84B984C884DF80EE80FD800C811B8110
:1026A000AA81B981CE0FD11D0FB6F894DEBF0FBE3F
:1026B000CDBFED010895A1E21A2EAA1BBB1BFD019F
:1026C0000DC0AA1FBB1FEE1FFF1FA217B307E40711
:1026D000F50720F0A21BB30BE40BF50B661F771F69
:1026E000881F991F1A9469F7609570958095909549
:1026F0009B01AC01BD01CF010895EE0FFF1F0590B6
:10270000F491E02D09940F931F93CF93DF938230C0
:10271000910510F482E090E0E091D803F091D903A4
:1027200030E020E0B0E0A0E0309799F421153105C9
:1027300009F44AC0281B390B24303105D8F58A81A9
:102740009B816115710589F1FB0193838283FE01F1
:1027500011C0408151810281138148175907E0F06F
:102760004817590799F4109761F012960C93129735
:1027700013961C933296CF01DF91CF911F910F9149
:1027800008950093D8031093D903F4CF2115310590
:1027900051F04217530738F0A901DB019A01BD013E
:1027A000DF01F801C1CFEF01F9CF9093D9038093F6
:1027B000D803CDCFFE01E20FF31F819391932250F6
:1027C000310939832883D7CF2091D6033091D7039D
:1027D000232B41F420910801309109013093D70354
:1027E0002093D60320910601309107012115310570
:1027F00041F42DB73EB740910A0150910B01241BC3
:10280000350BE091D603F091D703E217F307A0F45C
:102810002E1B3F0B2817390778F0AC014E5F5F4F36
:102820002417350748F04E0F5F1F5093D70340938E
:10283000D603819391939FCFF0E0E0E09CCFCF93BC
:10284000DF930097E9F0FC01329713821282A09186
:10285000D803B091D903ED0130E020E01097A1F446
:1028600020813181820F931F2091D6033091D703AD
:102870002817390709F061C0F093D703E093D60316
:10288000DF91CF910895EA01CE17DF07E8F54A817D
:102890005B819E0141155105B1F7E901FB83EA8394
:1028A00049915991C40FD51FEC17FD0761F4808140
:1028B00091810296840F951FE90199838883828113
:1028C00093819B838A83F0E0E0E012968D919C9146
:1028D00013970097B9F52D913C911197CD01029670
:1028E000820F931F2091D6033091D7032817390701
:1028F00039F6309751F51092D9031092D803B0935E
:10290000D703A093D603BCCFD383C2834081518128
:10291000840F951FC817D90761F44E5F5F4F8881F8
:102920009981480F591F518340838A819B819383EA
:1029300082832115310509F0B0CFF093D903E093DC
:10294000D8039ECFFD01DC01C0CF13821282D7CF06
:10295000B0E0A0E0EEEAF4E10C9426138C010097BD
:1029600051F4CB010E9483138C01C801CDB7DEB7AF
:10297000E0E10C944213FC01E60FF71F9C0122508A
:102980003109E217F30708F49DC0D901CD91DC911C
:102990001197C617D70798F0C530D10530F3CE018F
:1029A00004978617970708F3C61BD70B2297C19386
:1029B000D1936D937C93CF010E941F14D6CF5B01FE
:1029C000AC1ABD0A4C018C0E9D1EA091D803B0918B
:1029D000D903512C412CF12CE12C109731F5809129
:1029E000D6039091D7038815990509F05CC0461667
:1029F000570608F058C08091060190910701009792
:102A000041F48DB79EB740910A0150910B01841B90
:102A1000950BE817F90708F055C0F093D703E0933A
:102A2000D603F90171836083A0CF8D919C9111979A
:102A300012966C90129713967C901397A815B9056F
:102A400059F56C0142E0C40ED11CCA14DB0420F11C
:102A5000AC014A195B09DA011296159780F062827F
:102A6000738251834083D9016D937C93E114F10407
:102A700071F0D7011396FC93EE93129776CF2296BE
:102A80008C0F9D1FF90191838083F301EFCFF093A9
:102A9000D903E093D80369CF4816590608F42C01EE
:102AA0007D01D3019ACFCB010E9483137C01009753
:102AB00049F0AE01B8010E946515C8010E941F14BB
:102AC000870153CF10E000E050CFFB01DC0102C0D2
:102AD00001900D9241505040D8F70895FB01DC0160
:102AE00001900D920020E1F7089510E0C6EED0E0CD
:102AF00004C0FE010E947D132196C73ED107C9F78D
:042B0000F894FFCF77
:102B04008403000000000000DA03800000000000DD
:102B1400E501450172013202A30181019501000022
:102B240000000604D9033504B6031301C603B70332
:102B34000D0A003036373830353030373000313216
:102B4400333400416C61726D652000204163746907
:102B540076652C0020496E6163746976652C007378
:102B6400746174757320696E697430007374617470
:082B7400757320696E6974009D
:00000001FF
